{
  "_format": "hh-sol-artifact-1",
  "contractName": "TokenTransfer",
  "sourceName": "contracts/TokenTransfer.sol",
  "abi": [
    {
      "inputs": [
        {
          "internalType": "address",
          "name": "token",
          "type": "address"
        }
      ],
      "name": "setToken",
      "outputs": [],
      "stateMutability": "nonpayable",
      "type": "function"
    },
    {
      "inputs": [
        {
          "internalType": "address",
          "name": "recipient",
          "type": "address"
        },
        {
          "internalType": "uint256",
          "name": "amount",
          "type": "uint256"
        }
      ],
      "name": "transfer",
      "outputs": [],
      "stateMutability": "nonpayable",
      "type": "function"
    },
    {
      "inputs": [
        {
          "internalType": "address",
          "name": "sender",
          "type": "address"
        },
        {
          "internalType": "address",
          "name": "recipient",
          "type": "address"
        },
        {
          "internalType": "uint256",
          "name": "amount",
          "type": "uint256"
        }
      ],
      "name": "transferFrom",
      "outputs": [],
      "stateMutability": "nonpayable",
      "type": "function"
    }
  ],
  "bytecode": "0x608060405234801561001057600080fd5b5061033b806100206000396000f3fe608060405234801561001057600080fd5b50600436106100415760003560e01c8063144fa6d71461004657806323b872dd14610078578063a9059cbb1461008b575b600080fd5b610076610054366004610260565b600080546001600160a01b0319166001600160a01b0392909216919091179055565b005b610076610086366004610281565b61009e565b6100766100993660046102bc565b6101b9565b60005460405163095ea7b360e01b81526001600160a01b038581166004830152602482018490529091169063095ea7b390604401602060405180830381600087803b1580156100ec57600080fd5b505af1158015610100573d6000803e3d6000fd5b505050506040513d601f19601f8201168201806040525081019061012491906102e5565b506000546040516323b872dd60e01b81526001600160a01b038581166004830152848116602483015260448201849052909116906323b872dd90606401602060405180830381600087803b15801561017b57600080fd5b505af115801561018f573d6000803e3d6000fd5b505050506040513d601f19601f820116820180604052508101906101b391906102e5565b50505050565b60005460405163a9059cbb60e01b81526001600160a01b038481166004830152602482018490529091169063a9059cbb90604401602060405180830381600087803b15801561020757600080fd5b505af115801561021b573d6000803e3d6000fd5b505050506040513d601f19601f8201168201806040525081019061023f91906102e5565b505050565b80356001600160a01b038116811461025b57600080fd5b919050565b600060208284031215610271578081fd5b61027a82610244565b9392505050565b600080600060608486031215610295578182fd5b61029e84610244565b92506102ac60208501610244565b9150604084013590509250925092565b600080604083850312156102ce578182fd5b6102d783610244565b946020939093013593505050565b6000602082840312156102f6578081fd5b8151801515811461027a578182fdfea2646970667358221220ec77ef379ada7c1804bba4dd4ec45691c8fedbe9d0f97873c8243403e280637d64736f6c63430008020033",
  "linkReferences": {},
  "deployedLinkReferences": {}
}