{
  "_format": "hh-sol-artifact-1",
  "contractName": "OldNodeRewardManagement",
  "sourceName": "contracts/OldNodeRewardManagement.sol",
  "abi": [
    {
      "inputs": [
        {
          "internalType": "uint256",
          "name": "_nodePrice",
          "type": "uint256"
        },
        {
          "internalType": "uint256",
          "name": "_rewardPerNode",
          "type": "uint256"
        },
        {
          "internalType": "uint256",
          "name": "_claimTime",
          "type": "uint256"
        }
      ],
      "stateMutability": "nonpayable",
      "type": "constructor"
    },
    {
      "inputs": [
        {
          "internalType": "address",
          "name": "account",
          "type": "address"
        }
      ],
      "name": "_cashoutAllNodesReward",
      "outputs": [
        {
          "internalType": "uint256",
          "name": "",
          "type": "uint256"
        }
      ],
      "stateMutability": "nonpayable",
      "type": "function"
    },
    {
      "inputs": [
        {
          "internalType": "address",
          "name": "account",
          "type": "address"
        },
        {
          "internalType": "uint256",
          "name": "_creationTime",
          "type": "uint256"
        }
      ],
      "name": "_cashoutNodeReward",
      "outputs": [
        {
          "internalType": "uint256",
          "name": "",
          "type": "uint256"
        }
      ],
      "stateMutability": "nonpayable",
      "type": "function"
    },
    {
      "inputs": [
        {
          "internalType": "bool",
          "name": "newMode",
          "type": "bool"
        }
      ],
      "name": "_changeAutoDistri",
      "outputs": [],
      "stateMutability": "nonpayable",
      "type": "function"
    },
    {
      "inputs": [
        {
          "internalType": "uint256",
          "name": "newTime",
          "type": "uint256"
        }
      ],
      "name": "_changeClaimTime",
      "outputs": [],
      "stateMutability": "nonpayable",
      "type": "function"
    },
    {
      "inputs": [
        {
          "internalType": "uint256",
          "name": "newGasDistri",
          "type": "uint256"
        }
      ],
      "name": "_changeGasDistri",
      "outputs": [],
      "stateMutability": "nonpayable",
      "type": "function"
    },
    {
      "inputs": [
        {
          "internalType": "uint256",
          "name": "newNodePrice",
          "type": "uint256"
        }
      ],
      "name": "_changeNodePrice",
      "outputs": [],
      "stateMutability": "nonpayable",
      "type": "function"
    },
    {
      "inputs": [
        {
          "internalType": "uint256",
          "name": "newPrice",
          "type": "uint256"
        }
      ],
      "name": "_changeRewardPerNode",
      "outputs": [],
      "stateMutability": "nonpayable",
      "type": "function"
    },
    {
      "inputs": [],
      "name": "_distributeRewards",
      "outputs": [
        {
          "internalType": "uint256",
          "name": "",
          "type": "uint256"
        },
        {
          "internalType": "uint256",
          "name": "",
          "type": "uint256"
        },
        {
          "internalType": "uint256",
          "name": "",
          "type": "uint256"
        }
      ],
      "stateMutability": "nonpayable",
      "type": "function"
    },
    {
      "inputs": [
        {
          "internalType": "address",
          "name": "account",
          "type": "address"
        }
      ],
      "name": "_getNodeNumberOf",
      "outputs": [
        {
          "internalType": "uint256",
          "name": "",
          "type": "uint256"
        }
      ],
      "stateMutability": "view",
      "type": "function"
    },
    {
      "inputs": [
        {
          "internalType": "address",
          "name": "account",
          "type": "address"
        },
        {
          "internalType": "uint256",
          "name": "creationTime",
          "type": "uint256"
        }
      ],
      "name": "_getNodeRewardAmountOf",
      "outputs": [
        {
          "internalType": "uint256",
          "name": "",
          "type": "uint256"
        }
      ],
      "stateMutability": "view",
      "type": "function"
    },
    {
      "inputs": [
        {
          "internalType": "address",
          "name": "account",
          "type": "address"
        }
      ],
      "name": "_getNodesCreationTime",
      "outputs": [
        {
          "internalType": "string",
          "name": "",
          "type": "string"
        }
      ],
      "stateMutability": "view",
      "type": "function"
    },
    {
      "inputs": [
        {
          "internalType": "address",
          "name": "account",
          "type": "address"
        }
      ],
      "name": "_getNodesLastClaimTime",
      "outputs": [
        {
          "internalType": "string",
          "name": "",
          "type": "string"
        }
      ],
      "stateMutability": "view",
      "type": "function"
    },
    {
      "inputs": [
        {
          "internalType": "address",
          "name": "account",
          "type": "address"
        }
      ],
      "name": "_getNodesNames",
      "outputs": [
        {
          "internalType": "string",
          "name": "",
          "type": "string"
        }
      ],
      "stateMutability": "view",
      "type": "function"
    },
    {
      "inputs": [
        {
          "internalType": "address",
          "name": "account",
          "type": "address"
        }
      ],
      "name": "_getNodesRewardAvailable",
      "outputs": [
        {
          "internalType": "string",
          "name": "",
          "type": "string"
        }
      ],
      "stateMutability": "view",
      "type": "function"
    },
    {
      "inputs": [
        {
          "internalType": "address",
          "name": "account",
          "type": "address"
        }
      ],
      "name": "_getRewardAmountOf",
      "outputs": [
        {
          "internalType": "uint256",
          "name": "",
          "type": "uint256"
        }
      ],
      "stateMutability": "view",
      "type": "function"
    },
    {
      "inputs": [
        {
          "internalType": "address",
          "name": "account",
          "type": "address"
        },
        {
          "internalType": "uint256",
          "name": "_creationTime",
          "type": "uint256"
        }
      ],
      "name": "_getRewardAmountOf",
      "outputs": [
        {
          "internalType": "uint256",
          "name": "",
          "type": "uint256"
        }
      ],
      "stateMutability": "view",
      "type": "function"
    },
    {
      "inputs": [
        {
          "internalType": "address",
          "name": "account",
          "type": "address"
        }
      ],
      "name": "_isNodeOwner",
      "outputs": [
        {
          "internalType": "bool",
          "name": "",
          "type": "bool"
        }
      ],
      "stateMutability": "view",
      "type": "function"
    },
    {
      "inputs": [],
      "name": "autoDistri",
      "outputs": [
        {
          "internalType": "bool",
          "name": "",
          "type": "bool"
        }
      ],
      "stateMutability": "view",
      "type": "function"
    },
    {
      "inputs": [],
      "name": "claimTime",
      "outputs": [
        {
          "internalType": "uint256",
          "name": "",
          "type": "uint256"
        }
      ],
      "stateMutability": "view",
      "type": "function"
    },
    {
      "inputs": [
        {
          "internalType": "address",
          "name": "account",
          "type": "address"
        },
        {
          "internalType": "string",
          "name": "nodeName",
          "type": "string"
        }
      ],
      "name": "createNode",
      "outputs": [],
      "stateMutability": "nonpayable",
      "type": "function"
    },
    {
      "inputs": [],
      "name": "distribution",
      "outputs": [
        {
          "internalType": "bool",
          "name": "",
          "type": "bool"
        }
      ],
      "stateMutability": "view",
      "type": "function"
    },
    {
      "inputs": [],
      "name": "gasForDistribution",
      "outputs": [
        {
          "internalType": "uint256",
          "name": "",
          "type": "uint256"
        }
      ],
      "stateMutability": "view",
      "type": "function"
    },
    {
      "inputs": [],
      "name": "gateKeeper",
      "outputs": [
        {
          "internalType": "address",
          "name": "",
          "type": "address"
        }
      ],
      "stateMutability": "view",
      "type": "function"
    },
    {
      "inputs": [],
      "name": "lastDistributionCount",
      "outputs": [
        {
          "internalType": "uint256",
          "name": "",
          "type": "uint256"
        }
      ],
      "stateMutability": "view",
      "type": "function"
    },
    {
      "inputs": [],
      "name": "lastIndexProcessed",
      "outputs": [
        {
          "internalType": "uint256",
          "name": "",
          "type": "uint256"
        }
      ],
      "stateMutability": "view",
      "type": "function"
    },
    {
      "inputs": [],
      "name": "nodePrice",
      "outputs": [
        {
          "internalType": "uint256",
          "name": "",
          "type": "uint256"
        }
      ],
      "stateMutability": "view",
      "type": "function"
    },
    {
      "inputs": [],
      "name": "rewardPerNode",
      "outputs": [
        {
          "internalType": "uint256",
          "name": "",
          "type": "uint256"
        }
      ],
      "stateMutability": "view",
      "type": "function"
    },
    {
      "inputs": [
        {
          "internalType": "address",
          "name": "token_",
          "type": "address"
        }
      ],
      "name": "setToken",
      "outputs": [],
      "stateMutability": "nonpayable",
      "type": "function"
    },
    {
      "inputs": [],
      "name": "token",
      "outputs": [
        {
          "internalType": "address",
          "name": "",
          "type": "address"
        }
      ],
      "stateMutability": "view",
      "type": "function"
    },
    {
      "inputs": [],
      "name": "totalNodesCreated",
      "outputs": [
        {
          "internalType": "uint256",
          "name": "",
          "type": "uint256"
        }
      ],
      "stateMutability": "view",
      "type": "function"
    },
    {
      "inputs": [],
      "name": "totalRewardStaked",
      "outputs": [
        {
          "internalType": "uint256",
          "name": "",
          "type": "uint256"
        }
      ],
      "stateMutability": "view",
      "type": "function"
    }
  ],
  "bytecode": "0x60806040526009805460ff60a81b1960ff60a01b19909116600160a01b171690556207a120600a556000600b819055600c819055600d819055600e5534801561004757600080fd5b5060405161250c38038061250c83398101604081905261006691610089565b600592909255600655600755600880546001600160a01b031916331790556100b6565b60008060006060848603121561009d578283fd5b8351925060208401519150604084015190509250925092565b612447806100c56000396000f3fe608060405234801561001057600080fd5b50600436106101e55760003560e01c8063724765771161010f578063cece91eb116100a2578063ef9bb98811610071578063ef9bb9881461040b578063f1fec2b81461041e578063fb10d6fb14610427578063fc0c546a14610430576101e5565b8063cece91eb146103c9578063d1871a89146103dc578063dab0882a146103ef578063dec1472614610402576101e5565b8063a6e15cc4116100de578063a6e15cc414610387578063b8527aef1461039a578063c6faedc8146103a3578063c92819ce146103b6576101e5565b8063724765771461033e57806385c44d9d1461034757806388fe65531461035b5780638a327eaa1461037e576101e5565b80634a389fae11610187578063613ff46f11610156578063613ff46f146102fc578063619a635e146103055780636590c691146103185780636edb70021461032b576101e5565b80634a389fae146102af5780635759fb02146102c25780635c298b1c146102d55780635ee58efc146102e8576101e5565b8063334de3a2116101c3578063334de3a21461022e57806341ac82b01461024e5780634491a7e41461027157806345d61ded14610284576101e5565b806312b8603f146101ea578063144fa6d7146101ff57806327b3bf1114610212575b600080fd5b6101fd6101f8366004612068565b610443565b005b6101fd61020d36600461204e565b610643565b61021b60075481565b6040519081526020015b60405180910390f35b61024161023c36600461204e565b6106a4565b60405161022591906121e1565b61026161025c36600461204e565b61091d565b6040519015158152602001610225565b61021b61027f36600461204e565b61092e565b600854610297906001600160a01b031681565b6040516001600160a01b039091168152602001610225565b6102416102bd36600461204e565b6109c3565b6102416102d036600461204e565b610c35565b61021b6102e336600461204e565b610ea7565b60095461026190600160a81b900460ff1681565b61021b60065481565b61021b61031336600461204e565b610f92565b61021b610326366004612125565b61106a565b61021b610339366004612125565b611097565b61021b600c5481565b60095461026190600160a01b900460ff1681565b610363611150565b60408051938452602084019290925290820152606001610225565b61021b600e5481565b61021b610395366004612125565b6111af565b61021b600d5481565b6101fd6103b136600461216e565b611277565b6102416103c436600461204e565b6112bb565b6101fd6103d736600461216e565b61152d565b6101fd6103ea36600461216e565b611571565b6101fd6103fd36600461214e565b6115b5565b61021b600a5481565b6101fd61041936600461216e565b611612565b61021b60055481565b61021b600b5481565b600954610297906001600160a01b031681565b6009546001600160a01b031633148061046657506008546001600160a01b031633145b61048b5760405162461bcd60e51b8152600401610482906122aa565b60405180910390fd5b6104958282611656565b6104e15760405162461bcd60e51b815260206004820152601f60248201527f435245415445204e4f44453a204e616d65206e6f7420617661696c61626c65006044820152606401610482565b6001600160a01b038216600090815260046020818152604080842081516080810183528681524281850181905292810192909252606082018590528054600181018255908552938290208151805192959094020192610544928492910190611f9e565b50602082810151600183015560408084015160028401556060909301516003909201919091556001600160a01b0384166000818152600492839052838120549351632f0ad01760e21b8152928301526024820152604481019190915273__$ce39e7eba0e8c210ce522c13d692fbaca1$__9063bc2b405c9060640160006040518083038186803b1580156105d757600080fd5b505af41580156105eb573d6000803e3d6000fd5b5050600d8054925090506000610600836123ca565b9091555050600954600160a01b900460ff1680156106285750600954600160a81b900460ff16155b1561063f5761063b600a546006546117e6565b5050505b5050565b6009546001600160a01b031633148061066657506008546001600160a01b031633145b6106825760405162461bcd60e51b8152600401610482906122aa565b600980546001600160a01b0319166001600160a01b0392909216919091179055565b60606106af82611aba565b6106fb5760405162461bcd60e51b815260206004820152601860248201527f474554204e414d45533a204e4f204e4f4445204f574e455200000000000000006044820152606401610482565b6001600160a01b038216600090815260046020908152604080832080548251818502810185019093528083529192909190849084015b8282101561081357838290600052602060002090600402016040518060800160405290816000820180546107649061238f565b80601f01602080910402602001604051908101604052809291908181526020018280546107909061238f565b80156107dd5780601f106107b2576101008083540402835291602001916107dd565b820191906000526020600020905b8154815290600101906020018083116107c057829003601f168201915b50505050508152602001600182015481526020016002820154815260200160038201548152505081526020019060010190610731565b50505050905060008151905061084a6040518060800160405280606081526020016000815260200160008152602001600081525090565b60008360008151811061086d57634e487b7160e01b600052603260045260246000fd5b60200260200101516000015190506000604051806040016040528060018152602001602360f81b81525090506000600190505b8481101561090f578581815181106108c857634e487b7160e01b600052603260045260246000fd5b60200260200101519350828285600001516040516020016108eb9392919061219e565b60405160208183030381529060405292508080610907906123ca565b9150506108a0565b50909450505050505b919050565b600061092882611aba565b92915050565b60405163732a2ccf60e01b81526000600482018190526001600160a01b03831660248301529073__$ce39e7eba0e8c210ce522c13d692fbaca1$__9063732a2ccf9060440160206040518083038186803b15801561098b57600080fd5b505af415801561099f573d6000803e3d6000fd5b505050506040513d601f19601f820116820180604052508101906109289190612186565b60606109ce82611aba565b610a1a5760405162461bcd60e51b815260206004820152601960248201527f474554205245574152443a204e4f204e4f4445204f574e4552000000000000006044820152606401610482565b6001600160a01b038216600090815260046020908152604080832080548251818502810185019093528083529192909190849084015b82821015610b325783829060005260206000209060040201604051806080016040529081600082018054610a839061238f565b80601f0160208091040260200160405190810160405280929190818152602001828054610aaf9061238f565b8015610afc5780601f10610ad157610100808354040283529160200191610afc565b820191906000526020600020905b815481529060010190602001808311610adf57829003601f168201915b50505050508152602001600182015481526020016002820154815260200160038201548152505081526020019060010190610a50565b505050509050600081519050610b696040518060800160405280606081526020016000815260200160008152602001600081525090565b6000610ba084600081518110610b8f57634e487b7160e01b600052603260045260246000fd5b602002602001015160600151611b58565b604080518082019091526001808252602360f81b6020830152919250905b8481101561090f57858181518110610be657634e487b7160e01b600052603260045260246000fd5b602002602001015193508282610bff8660600151611b58565b604051602001610c119392919061219e565b60405160208183030381529060405292508080610c2d906123ca565b915050610bbe565b6060610c4082611aba565b610c8c5760405162461bcd60e51b815260206004820152601f60248201527f4c41535420434c41494d452054494d453a204e4f204e4f4445204f574e4552006044820152606401610482565b6001600160a01b038216600090815260046020908152604080832080548251818502810185019093528083529192909190849084015b82821015610da45783829060005260206000209060040201604051806080016040529081600082018054610cf59061238f565b80601f0160208091040260200160405190810160405280929190818152602001828054610d219061238f565b8015610d6e5780601f10610d4357610100808354040283529160200191610d6e565b820191906000526020600020905b815481529060010190602001808311610d5157829003601f168201915b50505050508152602001600182015481526020016002820154815260200160038201548152505081526020019060010190610cc2565b505050509050600081519050610ddb6040518060800160405280606081526020016000815260200160008152602001600081525090565b6000610e1284600081518110610e0157634e487b7160e01b600052603260045260246000fd5b602002602001015160400151611b58565b604080518082019091526001808252602360f81b6020830152919250905b8481101561090f57858181518110610e5857634e487b7160e01b600052603260045260246000fd5b602002602001015193508282610e718660400151611b58565b604051602001610e839392919061219e565b60405160208183030381529060405292508080610e9f906123ca565b915050610e30565b6009546000906001600160a01b0316331480610ecd57506008546001600160a01b031633145b610ee95760405162461bcd60e51b8152600401610482906122aa565b6001600160a01b0382166000908152600460205260409020805480610f205760405162461bcd60e51b815260040161048290612214565b600080805b83811015610f8857848181548110610f4d57634e487b7160e01b600052603260045260246000fd5b90600052602060002090600402019250826003015482610f6d91906122cc565b60006003850155915080610f80816123ca565b915050610f25565b5095945050505050565b6000610f9d82611aba565b610fe95760405162461bcd60e51b815260206004820152601c60248201527f47455420524557415244204f463a204e4f204e4f4445204f574e4552000000006044820152606401610482565b6001600160a01b038216600090815260046020526040812080549190815b838110156110605781818154811061102f57634e487b7160e01b600052603260045260246000fd5b9060005260206000209060040201600301548361104c91906122cc565b925080611058816123ca565b915050611007565b5090949350505050565b6001600160a01b038216600090815260046020526040812061108c9083611c9e565b600301549392505050565b6009546000906001600160a01b03163314806110bd57506008546001600160a01b031633145b6110d95760405162461bcd60e51b8152600401610482906122aa565b600082116110f95760405162461bcd60e51b815260040161048290612214565b6001600160a01b03831660009081526004602052604090208054806111305760405162461bcd60e51b81526004016104829061225b565b600061113c8386611c9e565b600301805460009091559695505050505050565b600954600090819081906001600160a01b031633148061117a57506008546001600160a01b031633145b6111965760405162461bcd60e51b8152600401610482906122aa565b6111a4600a546006546117e6565b925092509250909192565b60006111ba83611aba565b6112065760405162461bcd60e51b815260206004820152601c60248201527f47455420524557415244204f463a204e4f204e4f4445204f574e4552000000006044820152606401610482565b600082116112265760405162461bcd60e51b815260040161048290612214565b6001600160a01b038316600090815260046020526040902080548061125d5760405162461bcd60e51b81526004016104829061225b565b60006112698386611c9e565b600301549695505050505050565b6009546001600160a01b031633148061129a57506008546001600160a01b031633145b6112b65760405162461bcd60e51b8152600401610482906122aa565b600655565b60606112c682611aba565b6113125760405162461bcd60e51b815260206004820152601b60248201527f474554204352454154494d453a204e4f204e4f4445204f574e455200000000006044820152606401610482565b6001600160a01b038216600090815260046020908152604080832080548251818502810185019093528083529192909190849084015b8282101561142a578382906000526020600020906004020160405180608001604052908160008201805461137b9061238f565b80601f01602080910402602001604051908101604052809291908181526020018280546113a79061238f565b80156113f45780601f106113c9576101008083540402835291602001916113f4565b820191906000526020600020905b8154815290600101906020018083116113d757829003601f168201915b50505050508152602001600182015481526020016002820154815260200160038201548152505081526020019060010190611348565b5050505090506000815190506114616040518060800160405280606081526020016000815260200160008152602001600081525090565b60006114988460008151811061148757634e487b7160e01b600052603260045260246000fd5b602002602001015160200151611b58565b604080518082019091526001808252602360f81b6020830152919250905b8481101561090f578581815181106114de57634e487b7160e01b600052603260045260246000fd5b6020026020010151935082826114f78660200151611b58565b6040516020016115099392919061219e565b60405160208183030381529060405292508080611525906123ca565b9150506114b6565b6009546001600160a01b031633148061155057506008546001600160a01b031633145b61156c5760405162461bcd60e51b8152600401610482906122aa565b600555565b6009546001600160a01b031633148061159457506008546001600160a01b031633145b6115b05760405162461bcd60e51b8152600401610482906122aa565b600755565b6009546001600160a01b03163314806115d857506008546001600160a01b031633145b6115f45760405162461bcd60e51b8152600401610482906122aa565b60098054911515600160a01b0260ff60a01b19909216919091179055565b6009546001600160a01b031633148061163557506008546001600160a01b031633145b6116515760405162461bcd60e51b8152600401610482906122aa565b600a55565b6001600160a01b038216600090815260046020908152604080832080548251818502810185019093528083528493849084015b8282101561176b57838290600052602060002090600402016040518060800160405290816000820180546116bc9061238f565b80601f01602080910402602001604051908101604052809291908181526020018280546116e89061238f565b80156117355780601f1061170a57610100808354040283529160200191611735565b820191906000526020600020905b81548152906001019060200180831161171857829003601f168201915b50505050508152602001600182015481526020016002820154815260200160038201548152505081526020019060010190611689565b50505050905060005b81518110156117db5783805190602001208282815181106117a557634e487b7160e01b600052603260045260246000fd5b6020026020010151600001518051906020012014156117c957600092505050610928565b806117d3816123ca565b915050611774565b506001949350505050565b6009805460ff60a81b1916600160a81b17905560008054819081908061184e5760405162461bcd60e51b815260206004820152601e60248201527f44495354524920524557415244533a204e4f204e4f4445204f574e45525300006044820152606401610482565b80611864575050600c5460009250829150611ab3565b6000805a600c549091506000908142818080805b8f8a10801561188657508a86105b15611a8f5786611895816123ca565b600054909850881090506118a857600096505b600460008060000189815481106118cf57634e487b7160e01b600052603260045260246000fd5b60009182526020808320909101546001600160a01b0316835282019290925260400181208054955092505b84811015611a575782818154811061192257634e487b7160e01b600052603260045260246000fd5b906000526020600020906004020191506119f6826040518060800160405290816000820180546119519061238f565b80601f016020809104026020016040519081016040528092919081815260200182805461197d9061238f565b80156119ca5780601f1061199f576101008083540402835291602001916119ca565b820191906000526020600020905b8154815290600101906020018083116119ad57829003601f168201915b505050505081526020016001820154815260200160028201548152602001600382015481525050611e86565b15611a45578f826003016000828254611a0f91906122cc565b925050819055508582600201819055508f600e6000828254611a3191906122cc565b90915550849050611a41816123ca565b9450505b80611a4f816123ca565b9150506118fa565b5085611a62816123ca565b9650505a975087891115611a8757611a84611a7d8a8a611ea3565b8b90611eb6565b99505b879850611878565b5050600c8590556009805460ff60a81b19169055929a509198509196505050505050505b9250925092565b60405163732a2ccf60e01b81526000600482018190526001600160a01b038316602483015290819073__$ce39e7eba0e8c210ce522c13d692fbaca1$__9063732a2ccf9060440160206040518083038186803b158015611b1957600080fd5b505af4158015611b2d573d6000803e3d6000fd5b505050506040513d601f19601f82011682018060405250810190611b519190612186565b1192915050565b606081611b7d57506040805180820190915260018152600360fc1b6020820152610918565b8160005b8115611ba75780611b91816123ca565b9150611ba09050600a83612309565b9150611b81565b60008167ffffffffffffffff811115611bd057634e487b7160e01b600052604160045260246000fd5b6040519080825280601f01601f191660200182016040528015611bfa576020820181803683370190505b509050815b8515611c9557611c10600182612348565b90506000611c1f600a88612309565b611c2a90600a612329565b611c349088612348565b611c3f9060306122e4565b905060008160f81b905080848481518110611c6a57634e487b7160e01b600052603260045260246000fd5b60200101906001600160f81b031916908160001a905350611c8c600a89612309565b97505050611bff565b50949350505050565b815460009080611cc05760405162461bcd60e51b81526004016104829061225b565b600080611dd686805480602002602001604051908101604052809291908181526020016000905b82821015611dc95783829060005260206000209060040201604051806080016040529081600082018054611d1a9061238f565b80601f0160208091040260200160405190810160405280929190818152602001828054611d469061238f565b8015611d935780601f10611d6857610100808354040283529160200191611d93565b820191906000526020600020905b815481529060010190602001808311611d7657829003601f168201915b50505050508152602001600182015481526020016002820154815260200160038201548152505081526020019060010190611ce7565b5050505060008588611ec2565b90506000808212611de8575060019150805b82611e4c5760405162461bcd60e51b815260206004820152602e60248201527f4e4f4445205345415243483a204e6f204e4f444520466f756e6420776974682060448201526d7468697320626c6f636b74696d6560901b6064820152608401610482565b868181548110611e6c57634e487b7160e01b600052603260045260246000fd5b906000526020600020906004020194505050505092915050565b6000426007548360400151611e9b91906122cc565b111592915050565b6000611eaf8284612348565b9392505050565b6000611eaf82846122cc565b6000838310611f85576000611ee26002611edc87876122cc565b90611f92565b905082868281518110611f0557634e487b7160e01b600052603260045260246000fd5b6020026020010151602001511415611f1e579050611f8a565b82868281518110611f3f57634e487b7160e01b600052603260045260246000fd5b6020026020010151602001511115611f6f57611f678686611f61600185612348565b86611ec2565b915050611f8a565b611f6786611f7e8360016122cc565b8686611ec2565b506000195b949350505050565b6000611eaf8284612309565b828054611faa9061238f565b90600052602060002090601f016020900481019282611fcc5760008555612012565b82601f10611fe557805160ff1916838001178555612012565b82800160010185558215612012579182015b82811115612012578251825591602001919060010190611ff7565b5061201e929150612022565b5090565b5b8082111561201e5760008155600101612023565b80356001600160a01b038116811461091857600080fd5b60006020828403121561205f578081fd5b611eaf82612037565b6000806040838503121561207a578081fd5b61208383612037565b9150602083013567ffffffffffffffff8082111561209f578283fd5b818501915085601f8301126120b2578283fd5b8135818111156120c4576120c46123fb565b604051601f8201601f19908116603f011681019083821181831017156120ec576120ec6123fb565b81604052828152886020848701011115612104578586fd5b82602086016020830137856020848301015280955050505050509250929050565b60008060408385031215612137578182fd5b61214083612037565b946020939093013593505050565b60006020828403121561215f578081fd5b81358015158114611eaf578182fd5b60006020828403121561217f578081fd5b5035919050565b600060208284031215612197578081fd5b5051919050565b600084516121b081846020890161235f565b8451908301906121c481836020890161235f565b84519101906121d781836020880161235f565b0195945050505050565b600060208252825180602084015261220081604085016020870161235f565b601f01601f19169190910160400192915050565b60208082526027908201527f4e4f44453a204352454154494d45206d75737420626520686967686572207468604082015266616e207a65726f60c81b606082015260800190565b6020808252602f908201527f434153484f5554204552524f523a20596f7520646f6e27742068617665206e6f60408201526e19195cc81d1bc818d85cda0b5bdd5d608a1b606082015260800190565b602080825260089082015267233ab1b59037b33360c11b604082015260600190565b600082198211156122df576122df6123e5565b500190565b600060ff821660ff84168060ff03821115612301576123016123e5565b019392505050565b60008261232457634e487b7160e01b81526012600452602481fd5b500490565b6000816000190483118215151615612343576123436123e5565b500290565b60008282101561235a5761235a6123e5565b500390565b60005b8381101561237a578181015183820152602001612362565b83811115612389576000848401525b50505050565b6002810460018216806123a357607f821691505b602082108114156123c457634e487b7160e01b600052602260045260246000fd5b50919050565b60006000198214156123de576123de6123e5565b5060010190565b634e487b7160e01b600052601160045260246000fd5b634e487b7160e01b600052604160045260246000fdfea26469706673582212200ec086f2d37af2f7ca95fb1f2a2f7107b4f5f4c235b9a80764332da6c1b9a48664736f6c63430008020033",
  "linkReferences": {
    "contracts/IterableMapping.sol": {
      "IterableMapping": [
        {
          "length": 20,
          "start": 1639
        },
        {
          "length": 20,
          "start": 2587
        },
        {
          "length": 20,
          "start": 7081
        }
      ]
    }
  },
  "deployedLinkReferences": {
    "contracts/IterableMapping.sol": {
      "IterableMapping": [
        {
          "length": 20,
          "start": 1442
        },
        {
          "length": 20,
          "start": 2390
        },
        {
          "length": 20,
          "start": 6884
        }
      ]
    }
  }
}