{
  "_format": "hh-sol-artifact-1",
  "contractName": "PolarNodes",
  "sourceName": "contracts/PolarNodes.sol",
  "abi": [
    {
      "inputs": [
        {
          "internalType": "address[]",
          "name": "payees",
          "type": "address[]"
        },
        {
          "internalType": "uint256[]",
          "name": "shares",
          "type": "uint256[]"
        },
        {
          "internalType": "address[]",
          "name": "addresses",
          "type": "address[]"
        },
        {
          "internalType": "uint256[]",
          "name": "balances",
          "type": "uint256[]"
        },
        {
          "internalType": "uint256[]",
          "name": "fees",
          "type": "uint256[]"
        },
        {
          "internalType": "uint256",
          "name": "swapAmount",
          "type": "uint256"
        },
        {
          "internalType": "address",
          "name": "uniV2Router",
          "type": "address"
        }
      ],
      "stateMutability": "nonpayable",
      "type": "constructor"
    },
    {
      "anonymous": false,
      "inputs": [
        {
          "indexed": true,
          "internalType": "address",
          "name": "owner",
          "type": "address"
        },
        {
          "indexed": true,
          "internalType": "address",
          "name": "spender",
          "type": "address"
        },
        {
          "indexed": false,
          "internalType": "uint256",
          "name": "value",
          "type": "uint256"
        }
      ],
      "name": "Approval",
      "type": "event"
    },
    {
      "anonymous": false,
      "inputs": [
        {
          "indexed": true,
          "internalType": "contract IERC20",
          "name": "token",
          "type": "address"
        },
        {
          "indexed": false,
          "internalType": "address",
          "name": "to",
          "type": "address"
        },
        {
          "indexed": false,
          "internalType": "uint256",
          "name": "amount",
          "type": "uint256"
        }
      ],
      "name": "ERC20PaymentReleased",
      "type": "event"
    },
    {
      "anonymous": false,
      "inputs": [
        {
          "indexed": true,
          "internalType": "address",
          "name": "newLiquidityWallet",
          "type": "address"
        },
        {
          "indexed": true,
          "internalType": "address",
          "name": "oldLiquidityWallet",
          "type": "address"
        }
      ],
      "name": "LiquidityWalletUpdated",
      "type": "event"
    },
    {
      "anonymous": false,
      "inputs": [
        {
          "indexed": true,
          "internalType": "address",
          "name": "previousOwner",
          "type": "address"
        },
        {
          "indexed": true,
          "internalType": "address",
          "name": "newOwner",
          "type": "address"
        }
      ],
      "name": "OwnershipTransferred",
      "type": "event"
    },
    {
      "anonymous": false,
      "inputs": [
        {
          "indexed": false,
          "internalType": "address",
          "name": "account",
          "type": "address"
        },
        {
          "indexed": false,
          "internalType": "uint256",
          "name": "shares",
          "type": "uint256"
        }
      ],
      "name": "PayeeAdded",
      "type": "event"
    },
    {
      "anonymous": false,
      "inputs": [
        {
          "indexed": false,
          "internalType": "address",
          "name": "from",
          "type": "address"
        },
        {
          "indexed": false,
          "internalType": "uint256",
          "name": "amount",
          "type": "uint256"
        }
      ],
      "name": "PaymentReceived",
      "type": "event"
    },
    {
      "anonymous": false,
      "inputs": [
        {
          "indexed": false,
          "internalType": "address",
          "name": "to",
          "type": "address"
        },
        {
          "indexed": false,
          "internalType": "uint256",
          "name": "amount",
          "type": "uint256"
        }
      ],
      "name": "PaymentReleased",
      "type": "event"
    },
    {
      "anonymous": false,
      "inputs": [
        {
          "indexed": true,
          "internalType": "address",
          "name": "pair",
          "type": "address"
        },
        {
          "indexed": true,
          "internalType": "bool",
          "name": "value",
          "type": "bool"
        }
      ],
      "name": "SetAutomatedMarketMakerPair",
      "type": "event"
    },
    {
      "anonymous": false,
      "inputs": [
        {
          "indexed": false,
          "internalType": "uint256",
          "name": "tokensSwapped",
          "type": "uint256"
        },
        {
          "indexed": false,
          "internalType": "uint256",
          "name": "ethReceived",
          "type": "uint256"
        },
        {
          "indexed": false,
          "internalType": "uint256",
          "name": "tokensIntoLiqudity",
          "type": "uint256"
        }
      ],
      "name": "SwapAndLiquify",
      "type": "event"
    },
    {
      "anonymous": false,
      "inputs": [
        {
          "indexed": true,
          "internalType": "address",
          "name": "from",
          "type": "address"
        },
        {
          "indexed": true,
          "internalType": "address",
          "name": "to",
          "type": "address"
        },
        {
          "indexed": false,
          "internalType": "uint256",
          "name": "value",
          "type": "uint256"
        }
      ],
      "name": "Transfer",
      "type": "event"
    },
    {
      "anonymous": false,
      "inputs": [
        {
          "indexed": true,
          "internalType": "address",
          "name": "newAddress",
          "type": "address"
        },
        {
          "indexed": true,
          "internalType": "address",
          "name": "oldAddress",
          "type": "address"
        }
      ],
      "name": "UpdateUniswapV2Router",
      "type": "event"
    },
    {
      "inputs": [
        {
          "internalType": "address",
          "name": "",
          "type": "address"
        }
      ],
      "name": "_isBlacklisted",
      "outputs": [
        {
          "internalType": "bool",
          "name": "",
          "type": "bool"
        }
      ],
      "stateMutability": "view",
      "type": "function"
    },
    {
      "inputs": [
        {
          "internalType": "address",
          "name": "",
          "type": "address"
        }
      ],
      "name": "_isSuper",
      "outputs": [
        {
          "internalType": "bool",
          "name": "",
          "type": "bool"
        }
      ],
      "stateMutability": "view",
      "type": "function"
    },
    {
      "inputs": [
        {
          "internalType": "address",
          "name": "owner",
          "type": "address"
        },
        {
          "internalType": "address",
          "name": "spender",
          "type": "address"
        }
      ],
      "name": "allowance",
      "outputs": [
        {
          "internalType": "uint256",
          "name": "",
          "type": "uint256"
        }
      ],
      "stateMutability": "view",
      "type": "function"
    },
    {
      "inputs": [
        {
          "internalType": "address",
          "name": "spender",
          "type": "address"
        },
        {
          "internalType": "uint256",
          "name": "amount",
          "type": "uint256"
        }
      ],
      "name": "approve",
      "outputs": [
        {
          "internalType": "bool",
          "name": "",
          "type": "bool"
        }
      ],
      "stateMutability": "nonpayable",
      "type": "function"
    },
    {
      "inputs": [
        {
          "internalType": "address",
          "name": "",
          "type": "address"
        }
      ],
      "name": "automatedMarketMakerPairs",
      "outputs": [
        {
          "internalType": "bool",
          "name": "",
          "type": "bool"
        }
      ],
      "stateMutability": "view",
      "type": "function"
    },
    {
      "inputs": [
        {
          "internalType": "address",
          "name": "account",
          "type": "address"
        }
      ],
      "name": "balanceOf",
      "outputs": [
        {
          "internalType": "uint256",
          "name": "",
          "type": "uint256"
        }
      ],
      "stateMutability": "view",
      "type": "function"
    },
    {
      "inputs": [
        {
          "internalType": "address",
          "name": "account",
          "type": "address"
        },
        {
          "internalType": "bool",
          "name": "value",
          "type": "bool"
        }
      ],
      "name": "blacklistMalicious",
      "outputs": [],
      "stateMutability": "nonpayable",
      "type": "function"
    },
    {
      "inputs": [
        {
          "internalType": "uint256",
          "name": "amount",
          "type": "uint256"
        }
      ],
      "name": "boostReward",
      "outputs": [],
      "stateMutability": "nonpayable",
      "type": "function"
    },
    {
      "inputs": [],
      "name": "cashoutAll",
      "outputs": [],
      "stateMutability": "nonpayable",
      "type": "function"
    },
    {
      "inputs": [],
      "name": "cashoutFee",
      "outputs": [
        {
          "internalType": "uint256",
          "name": "",
          "type": "uint256"
        }
      ],
      "stateMutability": "view",
      "type": "function"
    },
    {
      "inputs": [
        {
          "internalType": "uint256",
          "name": "blocktime",
          "type": "uint256"
        }
      ],
      "name": "cashoutReward",
      "outputs": [],
      "stateMutability": "nonpayable",
      "type": "function"
    },
    {
      "inputs": [
        {
          "internalType": "bool",
          "name": "newMode",
          "type": "bool"
        }
      ],
      "name": "changeAutoDistri",
      "outputs": [],
      "stateMutability": "nonpayable",
      "type": "function"
    },
    {
      "inputs": [
        {
          "internalType": "uint256",
          "name": "newTime",
          "type": "uint256"
        }
      ],
      "name": "changeClaimTime",
      "outputs": [],
      "stateMutability": "nonpayable",
      "type": "function"
    },
    {
      "inputs": [
        {
          "internalType": "uint256",
          "name": "newGasDistri",
          "type": "uint256"
        }
      ],
      "name": "changeGasDistri",
      "outputs": [],
      "stateMutability": "nonpayable",
      "type": "function"
    },
    {
      "inputs": [
        {
          "internalType": "uint256",
          "name": "newNodePrice",
          "type": "uint256"
        }
      ],
      "name": "changeNodePrice",
      "outputs": [],
      "stateMutability": "nonpayable",
      "type": "function"
    },
    {
      "inputs": [
        {
          "internalType": "uint256",
          "name": "newPrice",
          "type": "uint256"
        }
      ],
      "name": "changeRewardPerNode",
      "outputs": [],
      "stateMutability": "nonpayable",
      "type": "function"
    },
    {
      "inputs": [
        {
          "internalType": "bool",
          "name": "newVal",
          "type": "bool"
        }
      ],
      "name": "changeSwapLiquify",
      "outputs": [],
      "stateMutability": "nonpayable",
      "type": "function"
    },
    {
      "inputs": [
        {
          "internalType": "string",
          "name": "name",
          "type": "string"
        }
      ],
      "name": "createNodeWithTokens",
      "outputs": [],
      "stateMutability": "nonpayable",
      "type": "function"
    },
    {
      "inputs": [],
      "name": "decimals",
      "outputs": [
        {
          "internalType": "uint8",
          "name": "",
          "type": "uint8"
        }
      ],
      "stateMutability": "view",
      "type": "function"
    },
    {
      "inputs": [
        {
          "internalType": "address",
          "name": "spender",
          "type": "address"
        },
        {
          "internalType": "uint256",
          "name": "subtractedValue",
          "type": "uint256"
        }
      ],
      "name": "decreaseAllowance",
      "outputs": [
        {
          "internalType": "bool",
          "name": "",
          "type": "bool"
        }
      ],
      "stateMutability": "nonpayable",
      "type": "function"
    },
    {
      "inputs": [],
      "name": "distributeRewards",
      "outputs": [
        {
          "internalType": "uint256",
          "name": "",
          "type": "uint256"
        },
        {
          "internalType": "uint256",
          "name": "",
          "type": "uint256"
        },
        {
          "internalType": "uint256",
          "name": "",
          "type": "uint256"
        }
      ],
      "stateMutability": "nonpayable",
      "type": "function"
    },
    {
      "inputs": [],
      "name": "distributionPool",
      "outputs": [
        {
          "internalType": "address",
          "name": "",
          "type": "address"
        }
      ],
      "stateMutability": "view",
      "type": "function"
    },
    {
      "inputs": [],
      "name": "futurFee",
      "outputs": [
        {
          "internalType": "uint256",
          "name": "",
          "type": "uint256"
        }
      ],
      "stateMutability": "view",
      "type": "function"
    },
    {
      "inputs": [],
      "name": "futurUsePool",
      "outputs": [
        {
          "internalType": "address",
          "name": "",
          "type": "address"
        }
      ],
      "stateMutability": "view",
      "type": "function"
    },
    {
      "inputs": [],
      "name": "getAutoDistri",
      "outputs": [
        {
          "internalType": "bool",
          "name": "",
          "type": "bool"
        }
      ],
      "stateMutability": "view",
      "type": "function"
    },
    {
      "inputs": [],
      "name": "getClaimTime",
      "outputs": [
        {
          "internalType": "uint256",
          "name": "",
          "type": "uint256"
        }
      ],
      "stateMutability": "view",
      "type": "function"
    },
    {
      "inputs": [],
      "name": "getDistriCount",
      "outputs": [
        {
          "internalType": "uint256",
          "name": "",
          "type": "uint256"
        }
      ],
      "stateMutability": "view",
      "type": "function"
    },
    {
      "inputs": [],
      "name": "getGasDistri",
      "outputs": [
        {
          "internalType": "uint256",
          "name": "",
          "type": "uint256"
        }
      ],
      "stateMutability": "view",
      "type": "function"
    },
    {
      "inputs": [
        {
          "internalType": "address",
          "name": "account",
          "type": "address"
        }
      ],
      "name": "getNodeNumberOf",
      "outputs": [
        {
          "internalType": "uint256",
          "name": "",
          "type": "uint256"
        }
      ],
      "stateMutability": "view",
      "type": "function"
    },
    {
      "inputs": [],
      "name": "getNodePrice",
      "outputs": [
        {
          "internalType": "uint256",
          "name": "",
          "type": "uint256"
        }
      ],
      "stateMutability": "view",
      "type": "function"
    },
    {
      "inputs": [],
      "name": "getNodesCreatime",
      "outputs": [
        {
          "internalType": "string",
          "name": "",
          "type": "string"
        }
      ],
      "stateMutability": "view",
      "type": "function"
    },
    {
      "inputs": [],
      "name": "getNodesLastClaims",
      "outputs": [
        {
          "internalType": "string",
          "name": "",
          "type": "string"
        }
      ],
      "stateMutability": "view",
      "type": "function"
    },
    {
      "inputs": [],
      "name": "getNodesNames",
      "outputs": [
        {
          "internalType": "string",
          "name": "",
          "type": "string"
        }
      ],
      "stateMutability": "view",
      "type": "function"
    },
    {
      "inputs": [],
      "name": "getNodesRewards",
      "outputs": [
        {
          "internalType": "string",
          "name": "",
          "type": "string"
        }
      ],
      "stateMutability": "view",
      "type": "function"
    },
    {
      "inputs": [],
      "name": "getRewardAmount",
      "outputs": [
        {
          "internalType": "uint256",
          "name": "",
          "type": "uint256"
        }
      ],
      "stateMutability": "view",
      "type": "function"
    },
    {
      "inputs": [
        {
          "internalType": "address",
          "name": "account",
          "type": "address"
        }
      ],
      "name": "getRewardAmountOf",
      "outputs": [
        {
          "internalType": "uint256",
          "name": "",
          "type": "uint256"
        }
      ],
      "stateMutability": "view",
      "type": "function"
    },
    {
      "inputs": [],
      "name": "getRewardPerNode",
      "outputs": [
        {
          "internalType": "uint256",
          "name": "",
          "type": "uint256"
        }
      ],
      "stateMutability": "view",
      "type": "function"
    },
    {
      "inputs": [],
      "name": "getTotalCreatedNodes",
      "outputs": [
        {
          "internalType": "uint256",
          "name": "",
          "type": "uint256"
        }
      ],
      "stateMutability": "view",
      "type": "function"
    },
    {
      "inputs": [],
      "name": "getTotalStakedReward",
      "outputs": [
        {
          "internalType": "uint256",
          "name": "",
          "type": "uint256"
        }
      ],
      "stateMutability": "view",
      "type": "function"
    },
    {
      "inputs": [
        {
          "internalType": "address",
          "name": "spender",
          "type": "address"
        },
        {
          "internalType": "uint256",
          "name": "addedValue",
          "type": "uint256"
        }
      ],
      "name": "increaseAllowance",
      "outputs": [
        {
          "internalType": "bool",
          "name": "",
          "type": "bool"
        }
      ],
      "stateMutability": "nonpayable",
      "type": "function"
    },
    {
      "inputs": [
        {
          "internalType": "uint256",
          "name": "amount",
          "type": "uint256"
        }
      ],
      "name": "increaseLiquidityDistribution",
      "outputs": [],
      "stateMutability": "nonpayable",
      "type": "function"
    },
    {
      "inputs": [],
      "name": "liquidityPoolFee",
      "outputs": [
        {
          "internalType": "uint256",
          "name": "",
          "type": "uint256"
        }
      ],
      "stateMutability": "view",
      "type": "function"
    },
    {
      "inputs": [],
      "name": "maxTx",
      "outputs": [
        {
          "internalType": "uint256",
          "name": "",
          "type": "uint256"
        }
      ],
      "stateMutability": "view",
      "type": "function"
    },
    {
      "inputs": [],
      "name": "name",
      "outputs": [
        {
          "internalType": "string",
          "name": "",
          "type": "string"
        }
      ],
      "stateMutability": "view",
      "type": "function"
    },
    {
      "inputs": [],
      "name": "nodeRewardManager",
      "outputs": [
        {
          "internalType": "contract OldNodeRewardManagement",
          "name": "",
          "type": "address"
        }
      ],
      "stateMutability": "view",
      "type": "function"
    },
    {
      "inputs": [],
      "name": "openTrading",
      "outputs": [],
      "stateMutability": "nonpayable",
      "type": "function"
    },
    {
      "inputs": [],
      "name": "owner",
      "outputs": [
        {
          "internalType": "address",
          "name": "",
          "type": "address"
        }
      ],
      "stateMutability": "view",
      "type": "function"
    },
    {
      "inputs": [
        {
          "internalType": "uint256",
          "name": "index",
          "type": "uint256"
        }
      ],
      "name": "payee",
      "outputs": [
        {
          "internalType": "address",
          "name": "",
          "type": "address"
        }
      ],
      "stateMutability": "view",
      "type": "function"
    },
    {
      "inputs": [],
      "name": "poolHandler",
      "outputs": [
        {
          "internalType": "address",
          "name": "",
          "type": "address"
        }
      ],
      "stateMutability": "view",
      "type": "function"
    },
    {
      "inputs": [],
      "name": "publiDistriRewards",
      "outputs": [],
      "stateMutability": "nonpayable",
      "type": "function"
    },
    {
      "inputs": [
        {
          "internalType": "address payable",
          "name": "account",
          "type": "address"
        }
      ],
      "name": "release",
      "outputs": [],
      "stateMutability": "nonpayable",
      "type": "function"
    },
    {
      "inputs": [
        {
          "internalType": "contract IERC20",
          "name": "token",
          "type": "address"
        },
        {
          "internalType": "address",
          "name": "account",
          "type": "address"
        }
      ],
      "name": "release",
      "outputs": [],
      "stateMutability": "nonpayable",
      "type": "function"
    },
    {
      "inputs": [
        {
          "internalType": "contract IERC20",
          "name": "token",
          "type": "address"
        },
        {
          "internalType": "address",
          "name": "account",
          "type": "address"
        }
      ],
      "name": "released",
      "outputs": [
        {
          "internalType": "uint256",
          "name": "",
          "type": "uint256"
        }
      ],
      "stateMutability": "view",
      "type": "function"
    },
    {
      "inputs": [
        {
          "internalType": "address",
          "name": "account",
          "type": "address"
        }
      ],
      "name": "released",
      "outputs": [
        {
          "internalType": "uint256",
          "name": "",
          "type": "uint256"
        }
      ],
      "stateMutability": "view",
      "type": "function"
    },
    {
      "inputs": [],
      "name": "renounceOwnership",
      "outputs": [],
      "stateMutability": "nonpayable",
      "type": "function"
    },
    {
      "inputs": [],
      "name": "rewardsFee",
      "outputs": [
        {
          "internalType": "uint256",
          "name": "",
          "type": "uint256"
        }
      ],
      "stateMutability": "view",
      "type": "function"
    },
    {
      "inputs": [],
      "name": "rwSwap",
      "outputs": [
        {
          "internalType": "uint256",
          "name": "",
          "type": "uint256"
        }
      ],
      "stateMutability": "view",
      "type": "function"
    },
    {
      "inputs": [
        {
          "internalType": "address",
          "name": "pair",
          "type": "address"
        },
        {
          "internalType": "bool",
          "name": "value",
          "type": "bool"
        }
      ],
      "name": "setAutomatedMarketMakerPair",
      "outputs": [],
      "stateMutability": "nonpayable",
      "type": "function"
    },
    {
      "inputs": [
        {
          "internalType": "address",
          "name": "account",
          "type": "address"
        },
        {
          "internalType": "bool",
          "name": "value",
          "type": "bool"
        }
      ],
      "name": "setIsSuper",
      "outputs": [],
      "stateMutability": "nonpayable",
      "type": "function"
    },
    {
      "inputs": [
        {
          "internalType": "address",
          "name": "nodeManagement",
          "type": "address"
        }
      ],
      "name": "setNodeManagement",
      "outputs": [],
      "stateMutability": "nonpayable",
      "type": "function"
    },
    {
      "inputs": [
        {
          "internalType": "address",
          "name": "account",
          "type": "address"
        }
      ],
      "name": "shares",
      "outputs": [
        {
          "internalType": "uint256",
          "name": "",
          "type": "uint256"
        }
      ],
      "stateMutability": "view",
      "type": "function"
    },
    {
      "inputs": [
        {
          "internalType": "uint256",
          "name": "_amount",
          "type": "uint256"
        }
      ],
      "name": "swapOld",
      "outputs": [],
      "stateMutability": "nonpayable",
      "type": "function"
    },
    {
      "inputs": [],
      "name": "swapTokensAmount",
      "outputs": [
        {
          "internalType": "uint256",
          "name": "",
          "type": "uint256"
        }
      ],
      "stateMutability": "view",
      "type": "function"
    },
    {
      "inputs": [],
      "name": "symbol",
      "outputs": [
        {
          "internalType": "string",
          "name": "",
          "type": "string"
        }
      ],
      "stateMutability": "view",
      "type": "function"
    },
    {
      "inputs": [],
      "name": "totalFees",
      "outputs": [
        {
          "internalType": "uint256",
          "name": "",
          "type": "uint256"
        }
      ],
      "stateMutability": "view",
      "type": "function"
    },
    {
      "inputs": [
        {
          "internalType": "contract IERC20",
          "name": "token",
          "type": "address"
        }
      ],
      "name": "totalReleased",
      "outputs": [
        {
          "internalType": "uint256",
          "name": "",
          "type": "uint256"
        }
      ],
      "stateMutability": "view",
      "type": "function"
    },
    {
      "inputs": [],
      "name": "totalReleased",
      "outputs": [
        {
          "internalType": "uint256",
          "name": "",
          "type": "uint256"
        }
      ],
      "stateMutability": "view",
      "type": "function"
    },
    {
      "inputs": [],
      "name": "totalShares",
      "outputs": [
        {
          "internalType": "uint256",
          "name": "",
          "type": "uint256"
        }
      ],
      "stateMutability": "view",
      "type": "function"
    },
    {
      "inputs": [],
      "name": "totalSupply",
      "outputs": [
        {
          "internalType": "uint256",
          "name": "",
          "type": "uint256"
        }
      ],
      "stateMutability": "view",
      "type": "function"
    },
    {
      "inputs": [
        {
          "internalType": "address",
          "name": "recipient",
          "type": "address"
        },
        {
          "internalType": "uint256",
          "name": "amount",
          "type": "uint256"
        }
      ],
      "name": "transfer",
      "outputs": [
        {
          "internalType": "bool",
          "name": "",
          "type": "bool"
        }
      ],
      "stateMutability": "nonpayable",
      "type": "function"
    },
    {
      "inputs": [
        {
          "internalType": "address",
          "name": "sender",
          "type": "address"
        },
        {
          "internalType": "address",
          "name": "recipient",
          "type": "address"
        },
        {
          "internalType": "uint256",
          "name": "amount",
          "type": "uint256"
        }
      ],
      "name": "transferFrom",
      "outputs": [
        {
          "internalType": "bool",
          "name": "",
          "type": "bool"
        }
      ],
      "stateMutability": "nonpayable",
      "type": "function"
    },
    {
      "inputs": [
        {
          "internalType": "address",
          "name": "newOwner",
          "type": "address"
        }
      ],
      "name": "transferOwnership",
      "outputs": [],
      "stateMutability": "nonpayable",
      "type": "function"
    },
    {
      "inputs": [],
      "name": "uniswapV2Pair",
      "outputs": [
        {
          "internalType": "address",
          "name": "",
          "type": "address"
        }
      ],
      "stateMutability": "view",
      "type": "function"
    },
    {
      "inputs": [],
      "name": "uniswapV2Router",
      "outputs": [
        {
          "internalType": "contract IJoeRouter02",
          "name": "",
          "type": "address"
        }
      ],
      "stateMutability": "view",
      "type": "function"
    },
    {
      "inputs": [
        {
          "internalType": "uint256",
          "name": "value",
          "type": "uint256"
        }
      ],
      "name": "updateCashoutFee",
      "outputs": [],
      "stateMutability": "nonpayable",
      "type": "function"
    },
    {
      "inputs": [
        {
          "internalType": "uint256",
          "name": "value",
          "type": "uint256"
        }
      ],
      "name": "updateFuturFee",
      "outputs": [],
      "stateMutability": "nonpayable",
      "type": "function"
    },
    {
      "inputs": [
        {
          "internalType": "address payable",
          "name": "wall",
          "type": "address"
        }
      ],
      "name": "updateFuturWall",
      "outputs": [],
      "stateMutability": "nonpayable",
      "type": "function"
    },
    {
      "inputs": [
        {
          "internalType": "uint256",
          "name": "value",
          "type": "uint256"
        }
      ],
      "name": "updateLiquiditFee",
      "outputs": [],
      "stateMutability": "nonpayable",
      "type": "function"
    },
    {
      "inputs": [
        {
          "internalType": "uint256",
          "name": "newMaxTx",
          "type": "uint256"
        }
      ],
      "name": "updateMaxTx",
      "outputs": [],
      "stateMutability": "nonpayable",
      "type": "function"
    },
    {
      "inputs": [
        {
          "internalType": "uint256",
          "name": "value",
          "type": "uint256"
        }
      ],
      "name": "updateRewardsFee",
      "outputs": [],
      "stateMutability": "nonpayable",
      "type": "function"
    },
    {
      "inputs": [
        {
          "internalType": "address payable",
          "name": "wall",
          "type": "address"
        }
      ],
      "name": "updateRewardsWall",
      "outputs": [],
      "stateMutability": "nonpayable",
      "type": "function"
    },
    {
      "inputs": [
        {
          "internalType": "uint256",
          "name": "value",
          "type": "uint256"
        }
      ],
      "name": "updateRwSwapFee",
      "outputs": [],
      "stateMutability": "nonpayable",
      "type": "function"
    },
    {
      "inputs": [
        {
          "internalType": "uint256",
          "name": "newVal",
          "type": "uint256"
        }
      ],
      "name": "updateSwapTokensAmount",
      "outputs": [],
      "stateMutability": "nonpayable",
      "type": "function"
    },
    {
      "inputs": [
        {
          "internalType": "address",
          "name": "newAddress",
          "type": "address"
        }
      ],
      "name": "updateUniswapV2Router",
      "outputs": [],
      "stateMutability": "nonpayable",
      "type": "function"
    },
    {
      "stateMutability": "payable",
      "type": "receive"
    }
  ],
  "bytecode": "0x60806040526019805461ffff19166101001790556000601b55601c805460ff191690553480156200002f57600080fd5b50604051620063d5380380620063d583398101604081905262000052916200123f565b6040805180820182526005808252642827a620a960d91b6020808401828152855180870190965292855284015281518a938a93929091620000969160039162001086565b508051620000ac90600490602084019062001086565b505050620000c9620000c362000b8360201b60201c565b62000b87565b80518251146200013b5760405162461bcd60e51b815260206004820152603260248201527f5061796d656e7453706c69747465723a2070617965657320616e6420736861726044820152710cae640d8cadccee8d040dad2e6dac2e8c6d60731b60648201526084015b60405180910390fd5b60008251116200018e5760405162461bcd60e51b815260206004820152601a60248201527f5061796d656e7453706c69747465723a206e6f20706179656573000000000000604482015260640162000132565b60005b82518110156200021257620001fd838281518110620001c057634e487b7160e01b600052603260045260246000fd5b6020026020010151838381518110620001e957634e487b7160e01b600052603260045260246000fd5b602002602001015162000bd960201b60201c565b8062000209816200145f565b91505062000191565b505050846001815181106200023757634e487b7160e01b600052603260045260246000fd5b6020026020010151601060006101000a8154816001600160a01b0302191690836001600160a01b03160217905550846002815181106200028757634e487b7160e01b600052603260045260246000fd5b6020026020010151601160006101000a8154816001600160a01b0302191690836001600160a01b0316021790555084600381518110620002d757634e487b7160e01b600052603260045260246000fd5b6020908102919091010151601280546001600160a01b0319166001600160a01b0392831617905560105416158015906200031b57506011546001600160a01b031615155b80156200033257506012546001600160a01b031615155b620003945760405162461bcd60e51b815260206004820152602b60248201527f46555455522c20524557415244202620504f4f4c20414444524553532043414e60448201526a4e4f54204245205a45524f60a81b606482015260840162000132565b6001600160a01b038116620003ec5760405162461bcd60e51b815260206004820152601560248201527f524f555445522043414e4e4f54204245205a45524f0000000000000000000000604482015260640162000132565b60008190506000816001600160a01b031663c45a01556040518163ffffffff1660e01b815260040160206040518083038186803b1580156200042d57600080fd5b505afa15801562000442573d6000803e3d6000fd5b505050506040513d601f19601f8201168201806040525081019062000468919062001222565b6001600160a01b031663c9c6539630846001600160a01b03166373b295c26040518163ffffffff1660e01b815260040160206040518083038186803b158015620004b157600080fd5b505afa158015620004c6573d6000803e3d6000fd5b505050506040513d601f19601f82011682018060405250810190620004ec919062001222565b6040516001600160e01b031960e085901b1681526001600160a01b03928316600482015291166024820152604401602060405180830381600087803b1580156200053557600080fd5b505af11580156200054a573d6000803e3d6000fd5b505050506040513d601f19601f8201168201806040525081019062000570919062001222565b600e80546001600160a01b038086166001600160a01b031992831617909255600f8054928416929091169190911790559050620005af81600162000dc7565b84600081518110620005d157634e487b7160e01b600052603260045260246000fd5b6020026020010151600014158015620006145750846001815181106200060757634e487b7160e01b600052603260045260246000fd5b6020026020010151600014155b80156200064b5750846002815181106200063e57634e487b7160e01b600052603260045260246000fd5b6020026020010151600014155b8015620006825750846003815181106200067557634e487b7160e01b600052603260045260246000fd5b6020026020010151600014155b620006d05760405162461bcd60e51b815260206004820152601460248201527f434f4e5354523a204665657320657175616c2030000000000000000000000000604482015260640162000132565b84600081518110620006f257634e487b7160e01b600052603260045260246000fd5b6020026020010151601581905550846001815181106200072257634e487b7160e01b600052603260045260246000fd5b6020026020010151601381905550846002815181106200075257634e487b7160e01b600052603260045260246000fd5b6020026020010151601481905550846003815181106200078257634e487b7160e01b600052603260045260246000fd5b602002602001015160178190555084600481518110620007b257634e487b7160e01b600052603260045260246000fd5b6020026020010151601881905550620007f9601554620007e560145460135462000eb260201b620036ad1790919060201c565b62000eb260201b620036ad1790919060201c565b6016558651158015906200080e575060008651115b620008825760405162461bcd60e51b815260206004820152603860248201527f434f4e5354523a20616464726573736573206172726179206c656e677468206d60448201527f7573742062652067726561746572207468616e207a65726f0000000000000000606482015260840162000132565b8551875114620008e65760405162461bcd60e51b815260206004820152602860248201527f434f4e5354523a2061646472657373657320617272617973206c656e677468206044820152670dad2e6dac2e8c6d60c31b606482015260840162000132565b60005b8751811015620009d257620009648882815181106200091857634e487b7160e01b600052603260045260246000fd5b60200260200101518883815181106200094157634e487b7160e01b600052603260045260246000fd5b6020026020010151670de0b6b3a76400006200095e919062001400565b62000ec7565b6001601f60008a84815181106200098b57634e487b7160e01b600052603260045260246000fd5b6020908102919091018101516001600160a01b03168252810191909152604001600020805460ff191691151591909117905580620009c9816200145f565b915050620008e9565b5062000a106040518060400160405280600f81526020016e2d2d2d2d2d2d2d2d2d2d2d2d2d2d2d60881b81525062000fac60201b620036b91760201c565b62000a5f62000a4e8860078151811062000a3a57634e487b7160e01b600052603260045260246000fd5b602002602001015162000ffa60201b60201c565b6200101960201b620036fc1760201c565b62000a9c6040518060400160405280600f81526020016e2d2d2d2d2d2d2d2d2d2d2d2d2d2d2d60881b81525062000fac60201b620036b91760201c565b60025469d3c21bcecceda10000001462000b0a5760405162461bcd60e51b815260206004820152602860248201527f434f4e5354523a20746f74616c537570706c79206d75737420657175616c20316044820152671036b4b63634b7b760c11b606482015260840162000132565b6000841162000b5c5760405162461bcd60e51b815260206004820152601d60248201527f434f4e5354523a205377617020616d6f756e7420696e636f7272656374000000604482015260640162000132565b62000b7084670de0b6b3a764000062001400565b601a5550620014a9975050505050505050565b3390565b600580546001600160a01b038381166001600160a01b0319831681179093556040519116919082907f8be0079c531659141344cd1fd0a4f28419497f9722a3daafe3b4186f6b6457e090600090a35050565b6001600160a01b03821662000c465760405162461bcd60e51b815260206004820152602c60248201527f5061796d656e7453706c69747465723a206163636f756e74206973207468652060448201526b7a65726f206164647265737360a01b606482015260840162000132565b6000811162000c985760405162461bcd60e51b815260206004820152601d60248201527f5061796d656e7453706c69747465723a20736861726573206172652030000000604482015260640162000132565b6001600160a01b0382166000908152600860205260409020541562000d145760405162461bcd60e51b815260206004820152602b60248201527f5061796d656e7453706c69747465723a206163636f756e7420616c726561647960448201526a206861732073686172657360a81b606482015260840162000132565b600a8054600181019091557fc65a7bb8d6351c1cf70c95a316cc6a92839c986682d98bc35f958f4883f9d2a80180546001600160a01b0319166001600160a01b038416908117909155600090815260086020526040902081905560065462000d7e908290620013e5565b600655604080516001600160a01b0384168152602081018390527f40c340f65e17194d14ddddb073d3c9f888e3cb52b5aae0c6c7706b4fbc905fac910160405180910390a15050565b6001600160a01b0382166000908152601e602052604090205460ff161515811515141562000e5e5760405162461bcd60e51b815260206004820152603d60248201527f544b4e3a204175746f6d61746564206d61726b6574206d616b6572207061697260448201527f20697320616c72656164792073657420746f20746861742076616c7565000000606482015260840162000132565b6001600160a01b0382166000818152601e6020526040808220805460ff191685151590811790915590519092917fffa9187bf1f18bf477bd0ea1bcbb64e93b6a98132473929edfce215cd9b16fab91a35050565b600062000ec08284620013e5565b9392505050565b6001600160a01b03821662000f1f5760405162461bcd60e51b815260206004820152601f60248201527f45524332303a206d696e7420746f20746865207a65726f206164647265737300604482015260640162000132565b806002600082825462000f339190620013e5565b90915550506001600160a01b0382166000908152602081905260408120805483929062000f62908490620013e5565b90915550506040518181526001600160a01b038316906000907fddf252ad1be2c89b69c2b068fc378daa952ba7f163c4a11628f55a4df523b3ef9060200160405180910390a35050565b62000ff78160405160240162000fc3919062001336565b60408051601f198184030181529190526020810180516001600160e01b0390811663104c13eb60e21b179091526200106516565b50565b6001600160a01b0381166000908152602081905260409020545b919050565b62000ff7816040516024016200103191815260200190565b60408051601f198184030181529190526020810180516001600160e01b0390811663f5b1bba960e01b179091526200106516565b80516a636f6e736f6c652e6c6f67602083016000808483855afa5050505050565b828054620010949062001422565b90600052602060002090601f016020900481019282620010b8576000855562001103565b82601f10620010d357805160ff191683800117855562001103565b8280016001018555821562001103579182015b8281111562001103578251825591602001919060010190620010e6565b506200111192915062001115565b5090565b5b8082111562001111576000815560010162001116565b80516001600160a01b03811681146200101457600080fd5b600082601f83011262001155578081fd5b815160206200116e6200116883620013bf565b6200138c565b82815281810190858301838502870184018810156200118b578586fd5b855b85811015620011b457620011a1826200112c565b845292840192908401906001016200118d565b5090979650505050505050565b600082601f830112620011d2578081fd5b81516020620011e56200116883620013bf565b828152818101908583018385028701840188101562001202578586fd5b855b85811015620011b45781518452928401929084019060010162001204565b60006020828403121562001234578081fd5b62000ec0826200112c565b600080600080600080600060e0888a0312156200125a578283fd5b87516001600160401b038082111562001271578485fd5b6200127f8b838c0162001144565b985060208a015191508082111562001295578485fd5b620012a38b838c01620011c1565b975060408a0151915080821115620012b9578485fd5b620012c78b838c0162001144565b965060608a0151915080821115620012dd578485fd5b620012eb8b838c01620011c1565b955060808a015191508082111562001301578485fd5b50620013108a828b01620011c1565b93505060a088015191506200132860c089016200112c565b905092959891949750929550565b6000602080835283518082850152825b81811015620013645785810183015185820160400152820162001346565b81811115620013765783604083870101525b50601f01601f1916929092016040019392505050565b604051601f8201601f191681016001600160401b0381118282101715620013b757620013b762001493565b604052919050565b60006001600160401b03821115620013db57620013db62001493565b5060209081020190565b60008219821115620013fb57620013fb6200147d565b500190565b60008160001904831182151516156200141d576200141d6200147d565b500290565b6002810460018216806200143757607f821691505b602082108114156200145957634e487b7160e01b600052602260045260246000fd5b50919050565b60006000198214156200147657620014766200147d565b5060010190565b634e487b7160e01b600052601160045260246000fd5b634e487b7160e01b600052604160045260246000fd5b614f1c80620014b96000396000f3fe6080604052600436106104a35760003560e01c80638743ef6d11610260578063c2d0ffca11610144578063dd62ed3e116100c1578063f598194911610085578063f598194914610ec6578063f5a0725614610edc578063f74c993414610ef1578063f7b9f94314610f11578063f9afc76314610f26578063fb0a749414610f3b576104ec565b8063dd62ed3e14610e16578063e33b7de314610e5c578063e3e0df2914610e71578063ee1afdbf14610e91578063f2fde38b14610ea6576104ec565b8063d0f7747411610108578063d0f7747414610d76578063d79779b214610d96578063d892934214610dcc578063da41b33314610dec578063db3ad6b514610e01576104ec565b8063c2d0ffca14610ccb578063c5ca7d6d14610ceb578063c9567bf914610d0b578063c9a3446814610d20578063ce7c2ac214610d40576104ec565b80639c82751c116101dd578063a9059cbb116101a1578063a9059cbb14610c10578063ab57476114610c30578063b5f8b72914610c46578063b62496f514610c66578063b96392c114610c96578063bdf24a5314610cb6576104ec565b80639c82751c14610b86578063a0a8fe6514610ba6578063a457c2d714610bbb578063a5021a1714610bdb578063a538ddf214610bf0576104ec565b80638f0ba4ca116102245780638f0ba4ca14610adb5780639349c47d14610afb57806395d89b4114610b1b5780639852595c14610b305780639a7a23d614610b66576104ec565b80638743ef6d14610a4857806388c41d7c14610a5d5780638b83209b14610a7d5780638bc9c7b014610a9d5780638da5cb5b14610abd576104ec565b806348b750441161038757806365bfe4301161030457806370a08231116102c857806370a0823114610987578063715018a6146109bd5780637437681e146109d25780637628b3d7146109e85780637b77039214610a085780638013858b14610a28576104ec565b806365bfe430146108e15780636770474b146109015780636815a91c146109215780636d9ae0be146109415780636f4a2cd014610957576104ec565b8063583bd7a61161034b578063583bd7a61461085657806359640ed9146108765780635b0d4674146108965780635f1c3182146108ab57806365b8dbc0146108c1576104ec565b806348b75044146107d657806348e5642b146107f657806349bd5a5e1461080b578063545579731461082b57806354f12f1f14610840576104ec565b80631916558711610420578063313ce567116103e4578063313ce567146106ff578063395093511461071b5780633a98ef391461073b578063406072a9146107505780634195fbf31461079657806342bc9fca146107b6576104ec565b806319165587146106595780631cdd3be31461067957806323b872dd146106a95780632a607841146106c95780632bb14e1d146106e9576104ec565b80630f512fc7116104675780630f512fc7146105b157806313114a9d146105e1578063138a634a146105f75780631694505e1461060c57806318160ddd14610644576104ec565b806306fdde03146104f1578063084a6bff1461051c578063095ea7b31461053e57806309a69f571461056e5780630c08f30014610591576104ec565b366104ec577f6ef95f06320e7a25a04a175ca677b7052bdd97131872c2192525a629f51be77033604080516001600160a01b0390921682523460208301520160405180910390a1005b600080fd5b3480156104fd57600080fd5b50610506610f5b565b6040516105139190614a70565b60405180910390f35b34801561052857600080fd5b5061053c6105373660046149a7565b610fed565b005b34801561054a57600080fd5b5061055e610559366004614846565b611047565b6040519015158152602001610513565b34801561057a57600080fd5b5061058361105d565b604051908152602001610513565b34801561059d57600080fd5b5061053c6105ac366004614769565b6111af565b3480156105bd57600080fd5b5061055e6105cc366004614769565b601f6020526000908152604090205460ff1681565b3480156105ed57600080fd5b5061058360165481565b34801561060357600080fd5b506105066111fb565b34801561061857600080fd5b50600e5461062c906001600160a01b031681565b6040516001600160a01b039091168152602001610513565b34801561065057600080fd5b50600254610583565b34801561066557600080fd5b5061053c610674366004614769565b61134d565b34801561068557600080fd5b5061055e610694366004614769565b601d6020526000908152604090205460ff1681565b3480156106b557600080fd5b5061055e6106c43660046147d9565b61147b565b3480156106d557600080fd5b5060125461062c906001600160a01b031681565b3480156106f557600080fd5b5061058360135481565b34801561070b57600080fd5b5060405160128152602001610513565b34801561072757600080fd5b5061055e610736366004614846565b6115b4565b34801561074757600080fd5b50600654610583565b34801561075c57600080fd5b5061058361076b3660046148a9565b6001600160a01b039182166000908152600c6020908152604080832093909416825291909152205490565b3480156107a257600080fd5b5061053c6107b13660046149a7565b6115f0565b3480156107c257600080fd5b5061053c6107d13660046149a7565b611663565b3480156107e257600080fd5b5061053c6107f13660046148a9565b6116a7565b34801561080257600080fd5b5061058361188f565b34801561081757600080fd5b50600f5461062c906001600160a01b031681565b34801561083757600080fd5b5061053c6118d4565b34801561084c57600080fd5b5061058360145481565b34801561086257600080fd5b5061053c610871366004614871565b611c3e565b34801561088257600080fd5b5061053c6108913660046149a7565b611c82565b3480156108a257600080fd5b50610506611d0e565b3480156108b757600080fd5b50610583601a5481565b3480156108cd57600080fd5b5061053c6108dc366004614769565b611de9565b3480156108ed57600080fd5b5061053c6108fc3660046149a7565b61208c565b34801561090d57600080fd5b5061053c61091c3660046149a7565b6123d1565b34801561092d57600080fd5b5061053c61093c3660046149a7565b612400565b34801561094d57600080fd5b5061058360175481565b34801561096357600080fd5b5061096c61242f565b60408051938452602084019290925290820152606001610513565b34801561099357600080fd5b506105836109a2366004614769565b6001600160a01b031660009081526020819052604090205490565b3480156109c957600080fd5b5061053c612508565b3480156109de57600080fd5b50610583601b5481565b3480156109f457600080fd5b50600d5461062c906001600160a01b031681565b348015610a1457600080fd5b5061053c610a233660046149a7565b61253e565b348015610a3457600080fd5b5061053c610a433660046149a7565b612599565b348015610a5457600080fd5b5061053c6125f4565b348015610a6957600080fd5b5061053c610a783660046149a7565b61267c565b348015610a8957600080fd5b5061062c610a983660046149a7565b6126c0565b348015610aa957600080fd5b5061053c610ab83660046149a7565b6126fe565b348015610ac957600080fd5b506005546001600160a01b031661062c565b348015610ae757600080fd5b5061053c610af63660046148bb565b61272d565b348015610b0757600080fd5b5061053c610b16366004614769565b612bf9565b348015610b2757600080fd5b50610506612c45565b348015610b3c57600080fd5b50610583610b4b366004614769565b6001600160a01b031660009081526009602052604090205490565b348015610b7257600080fd5b5061053c610b81366004614819565b612c54565b348015610b9257600080fd5b5061053c610ba13660046149a7565b612d1f565b348015610bb257600080fd5b50610583612d7a565b348015610bc757600080fd5b5061055e610bd6366004614846565b612dbf565b348015610be757600080fd5b50610583612e58565b348015610bfc57600080fd5b5060105461062c906001600160a01b031681565b348015610c1c57600080fd5b5061055e610c2b366004614846565b612e9d565b348015610c3c57600080fd5b5061058360155481565b348015610c5257600080fd5b5061053c610c613660046149a7565b612eaa565b348015610c7257600080fd5b5061055e610c81366004614769565b601e6020526000908152604090205460ff1681565b348015610ca257600080fd5b50610583610cb1366004614769565b612f2e565b348015610cc257600080fd5b50610506612fdf565b348015610cd757600080fd5b5061053c610ce63660046149a7565b6130ba565b348015610cf757600080fd5b5060115461062c906001600160a01b031681565b348015610d1757600080fd5b5061053c6130e9565b348015610d2c57600080fd5b5061053c610d3b366004614819565b613175565b348015610d4c57600080fd5b50610583610d5b366004614769565b6001600160a01b031660009081526008602052604090205490565b348015610d8257600080fd5b5061053c610d91366004614871565b6131ca565b348015610da257600080fd5b50610583610db1366004614769565b6001600160a01b03166000908152600b602052604090205490565b348015610dd857600080fd5b5061053c610de7366004614819565b613226565b348015610df857600080fd5b5061058361327b565b348015610e0d57600080fd5b506105836132c0565b348015610e2257600080fd5b50610583610e313660046147a1565b6001600160a01b03918216600090815260016020908152604080832093909416825291909152205490565b348015610e6857600080fd5b50600754610583565b348015610e7d57600080fd5b5061053c610e8c3660046149a7565b613305565b348015610e9d57600080fd5b506105066133b4565b348015610eb257600080fd5b5061053c610ec1366004614769565b61348f565b348015610ed257600080fd5b5061058360185481565b348015610ee857600080fd5b50610583613527565b348015610efd57600080fd5b50610583610f0c366004614769565b61356c565b348015610f1d57600080fd5b5061058361359f565b348015610f3257600080fd5b5061055e6135e4565b348015610f4757600080fd5b5061053c610f56366004614769565b613661565b606060038054610f6a90614e0e565b80601f0160208091040260200160405190810160405280929190818152602001828054610f9690614e0e565b8015610fe35780601f10610fb857610100808354040283529160200191610fe3565b820191906000526020600020905b815481529060010190602001808311610fc657829003601f168201915b5050505050905090565b6005546001600160a01b031633146110205760405162461bcd60e51b815260040161101790614c31565b60405180910390fd5b6013819055601554601454611041919061103b9084906136ad565b906136ad565b60165550565b6000611054338484613741565b50600192915050565b60003361107c5760405162461bcd60e51b815260040161101790614b72565b600d546001600160a01b03166341ac82b0336040516001600160e01b031960e084901b1681526001600160a01b03909116600482015260240160206040518083038186803b1580156110cd57600080fd5b505afa1580156110e1573d6000803e3d6000fd5b505050506040513d601f19601f82011682018060405250810190611105919061488d565b6111215760405162461bcd60e51b815260040161101790614b4b565b600d546001600160a01b031663619a635e336040516001600160e01b031960e084901b1681526001600160a01b03909116600482015260240160206040518083038186803b15801561117257600080fd5b505afa158015611186573d6000803e3d6000fd5b505050506040513d601f19601f820116820180604052508101906111aa91906149bf565b905090565b6005546001600160a01b031633146111d95760405162461bcd60e51b815260040161101790614c31565b601080546001600160a01b0319166001600160a01b0392909216919091179055565b60603361121a5760405162461bcd60e51b815260040161101790614b72565b600d546001600160a01b03166341ac82b0336040516001600160e01b031960e084901b1681526001600160a01b03909116600482015260240160206040518083038186803b15801561126b57600080fd5b505afa15801561127f573d6000803e3d6000fd5b505050506040513d601f19601f820116820180604052508101906112a3919061488d565b6112bf5760405162461bcd60e51b815260040161101790614b4b565b600d546001600160a01b031663334de3a2335b6040516001600160e01b031960e084901b1681526001600160a01b03909116600482015260240160006040518083038186803b15801561131157600080fd5b505afa158015611325573d6000803e3d6000fd5b505050506040513d6000823e601f3d908101601f191682016040526111aa9190810190614934565b6001600160a01b0381166000908152600860205260409020546113825760405162461bcd60e51b815260040161101790614ba0565b600061138d60075490565b6113979047614d74565b905060006113c483836113bf866001600160a01b031660009081526009602052604090205490565b61390b565b9050806113e35760405162461bcd60e51b815260040161101790614be6565b6001600160a01b0383166000908152600960205260408120805483929061140b908490614d74565b9250508190555080600760008282546114249190614d74565b9091555061143490508382613951565b604080516001600160a01b0385168152602081018390527fdf20fd1e76bc69d672e4814fafb2c449bba3a5369d8359adf9e05e6fde87b056910160405180910390a1505050565b6000611488848484613a6a565b6114ba6040518060400160405280600e81526020016d7472616e7366657246726f6d203160901b815250858585613ce8565b6115156040518060400160405280600e81526020016d3a3930b739b332b9233937b6901960911b815250856114ec3390565b6001600160a01b0388166000908152600160209081526040808320338452909152902054613ce8565b6001600160a01b03841660009081526001602090815260408083203384529091529020548281101561159a5760405162461bcd60e51b815260206004820152602860248201527f45524332303a207472616e7366657220616d6f756e74206578636565647320616044820152676c6c6f77616e636560c01b6064820152608401611017565b6115a78533858403613741565b60019150505b9392505050565b3360008181526001602090815260408083206001600160a01b038716845290915281205490916110549185906115eb908690614d74565b613741565b6005546001600160a01b0316331461161a5760405162461bcd60e51b815260040161101790614c31565b478111156116255750475b6005546040516001600160a01b039091169082156108fc029083906000818181858888f1935050505015801561165f573d6000803e3d6000fd5b5050565b6005546001600160a01b0316331461168d5760405162461bcd60e51b815260040161101790614c31565b6014819055601554601354611041919061103b90846136ad565b6001600160a01b0381166000908152600860205260409020546116dc5760405162461bcd60e51b815260040161101790614ba0565b6001600160a01b0382166000908152600b60205260408120546040516370a0823160e01b81523060048201526001600160a01b038516906370a082319060240160206040518083038186803b15801561173457600080fd5b505afa158015611748573d6000803e3d6000fd5b505050506040513d601f19601f8201168201806040525081019061176c91906149bf565b6117769190614d74565b905060006117af83836113bf87876001600160a01b039182166000908152600c6020908152604080832093909416825291909152205490565b9050806117ce5760405162461bcd60e51b815260040161101790614be6565b6001600160a01b038085166000908152600c6020908152604080832093871683529290529081208054839290611805908490614d74565b90915550506001600160a01b0384166000908152600b602052604081208054839290611832908490614d74565b909155506118439050848483613d31565b604080516001600160a01b038581168252602082018490528616917f3be5b7a71e84ed12875d241991c70855ac5817d847039e17a9d895c1ceb0f18a910160405180910390a250505050565b600d54604080516345193f5560e11b815290516000926001600160a01b031691638a327eaa916004808301926020929190829003018186803b15801561117257600080fd5b33806119365760405162461bcd60e51b815260206004820152602b60248201527f4d414e494120435348543a20206372656174696f6e2066726f6d20746865207a60448201526a65726f206164647265737360a81b6064820152608401611017565b6001600160a01b0381166000908152601d602052604090205460ff161561199f5760405162461bcd60e51b815260206004820152601f60248201527f4d414e494120435348543a20426c61636b6c69737465642061646472657373006044820152606401611017565b6010546001600160a01b038281169116148015906119cb57506011546001600160a01b03828116911614155b611a3d5760405162461bcd60e51b815260206004820152603860248201527f4d414e494120435348543a20667574757220616e642072657761726473506f6f60448201527f6c2063616e6e6f7420636173686f7574207265776172647300000000000000006064820152608401611017565b600d546040516330cd31af60e11b81526001600160a01b038381166004830152600092169063619a635e9060240160206040518083038186803b158015611a8357600080fd5b505afa158015611a97573d6000803e3d6000fd5b505050506040513d601f19601f82011682018060405250810190611abb91906149bf565b905060008111611b2a5760405162461bcd60e51b815260206004820152603460248201527f4d414e494120435348543a20596f7520646f6e2774206861766520656e6f75676044820152731a081c995dd85c99081d1bc818d85cda081bdd5d60621b6064820152608401611017565b601954610100900460ff1615611ba35760175460009015611b9557611b656064611b5f60175485613d8390919063ffffffff16565b90613d8f565b601154909150611b7f906001600160a01b03163083613d9b565b601054611b95906001600160a01b031682613fa1565b611b9f8183614dcb565b9150505b601154611bba906001600160a01b03168383613d9b565b600d5460405163170a62c760e21b81526001600160a01b03848116600483015290911690635c298b1c90602401602060405180830381600087803b158015611c0157600080fd5b505af1158015611c15573d6000803e3d6000fd5b505050506040513d601f19601f82011682018060405250810190611c3991906149bf565b505050565b6005546001600160a01b03163314611c685760405162461bcd60e51b815260040161101790614c31565b601980549115156101000261ff0019909216919091179055565b6005546001600160a01b03163314611cac5760405162461bcd60e51b815260040161101790614c31565b600d54604051631df3773160e31b8152600481018390526001600160a01b039091169063ef9bb988906024015b600060405180830381600087803b158015611cf357600080fd5b505af1158015611d07573d6000803e3d6000fd5b5050505050565b606033611d2d5760405162461bcd60e51b815260040161101790614b72565b600d546001600160a01b03166341ac82b0336040516001600160e01b031960e084901b1681526001600160a01b03909116600482015260240160206040518083038186803b158015611d7e57600080fd5b505afa158015611d92573d6000803e3d6000fd5b505050506040513d601f19601f82011682018060405250810190611db6919061488d565b611dd25760405162461bcd60e51b815260040161101790614b4b565b600d546001600160a01b0316634a389fae336112d2565b6005546001600160a01b03163314611e135760405162461bcd60e51b815260040161101790614c31565b600e546001600160a01b0382811691161415611e825760405162461bcd60e51b815260206004820152602860248201527f544b4e3a2054686520726f7574657220616c7265616479206861732074686174604482015267206164647265737360c01b6064820152608401611017565b600e546040516001600160a01b03918216918316907f8fc842bbd331dfa973645f4ed48b11683d501ebf1352708d77a5da2ab49a576e90600090a3600e80546001600160a01b0319166001600160a01b0383811691909117918290556040805163c45a015560e01b815290516000939092169163c45a015591600480820192602092909190829003018186803b158015611f1b57600080fd5b505afa158015611f2f573d6000803e3d6000fd5b505050506040513d601f19601f82011682018060405250810190611f539190614785565b6001600160a01b031663c9c6539630600e60009054906101000a90046001600160a01b03166001600160a01b03166373b295c26040518163ffffffff1660e01b815260040160206040518083038186803b158015611fb057600080fd5b505afa158015611fc4573d6000803e3d6000fd5b505050506040513d601f19601f82011682018060405250810190611fe89190614785565b6040516001600160e01b031960e085901b1681526001600160a01b03928316600482015291166024820152604401602060405180830381600087803b15801561203057600080fd5b505af1158015612044573d6000803e3d6000fd5b505050506040513d601f19601f820116820180604052508101906120689190614785565b600f80546001600160a01b0319166001600160a01b03929092169190911790555050565b33806120e85760405162461bcd60e51b815260206004820152602560248201527f435348543a20206372656174696f6e2066726f6d20746865207a65726f206164604482015264647265737360d81b6064820152608401611017565b6001600160a01b0381166000908152601d602052604090205460ff16156121515760405162461bcd60e51b815260206004820152601f60248201527f4d414e494120435348543a20426c61636b6c69737465642061646472657373006044820152606401611017565b6010546001600160a01b0382811691161480159061217d57506011546001600160a01b03828116911614155b6121e45760405162461bcd60e51b815260206004820152603260248201527f435348543a20667574757220616e642072657761726473506f6f6c2063616e6e6044820152716f7420636173686f7574207265776172647360701b6064820152608401611017565b600d546040516329b8573160e21b81526001600160a01b03838116600483015260248201859052600092169063a6e15cc49060440160206040518083038186803b15801561223157600080fd5b505afa158015612245573d6000803e3d6000fd5b505050506040513d601f19601f8201168201806040525081019061226991906149bf565b9050600081116122d25760405162461bcd60e51b815260206004820152602e60248201527f435348543a20596f7520646f6e2774206861766520656e6f756768207265776160448201526d1c99081d1bc818d85cda081bdd5d60921b6064820152608401611017565b601954610100900460ff161561232e5760175460009015612320576123076064611b5f60175485613d8390919063ffffffff16565b601054909150612320906001600160a01b031682613fa1565b61232a8183614dcb565b9150505b601154612345906001600160a01b03168383613d9b565b600d5460405163376db80160e11b81526001600160a01b0384811660048301526024820186905290911690636edb700290604401602060405180830381600087803b15801561239357600080fd5b505af11580156123a7573d6000803e3d6000fd5b505050506040513d601f19601f820116820180604052508101906123cb91906149bf565b50505050565b6005546001600160a01b031633146123fb5760405162461bcd60e51b815260040161101790614c31565b601a55565b6005546001600160a01b0316331461242a5760405162461bcd60e51b815260040161101790614c31565b601755565b60008080336001600160a01b031661244f6005546001600160a01b031690565b6001600160a01b0316146124755760405162461bcd60e51b815260040161101790614c31565b600d60009054906101000a90046001600160a01b03166001600160a01b03166388fe65536040518163ffffffff1660e01b8152600401606060405180830381600087803b1580156124c557600080fd5b505af11580156124d9573d6000803e3d6000fd5b505050506040513d601f19601f820116820180604052508101906124fd91906149d7565b925092509250909192565b6005546001600160a01b031633146125325760405162461bcd60e51b815260040161101790614c31565b61253c6000613ff0565b565b6005546001600160a01b031633146125685760405162461bcd60e51b815260040161101790614c31565b600d546040516318df5db960e31b8152600481018390526001600160a01b039091169063c6faedc890602401611cd9565b6005546001600160a01b031633146125c35760405162461bcd60e51b815260040161101790614c31565b600d5460405163cece91eb60e01b8152600481018390526001600160a01b039091169063cece91eb90602401611cd9565b600d60009054906101000a90046001600160a01b03166001600160a01b03166388fe65536040518163ffffffff1660e01b8152600401606060405180830381600087803b15801561264457600080fd5b505af1158015612658573d6000803e3d6000fd5b505050506040513d601f19601f82011682018060405250810190611c3991906149d7565b6005546001600160a01b031633146126a65760405162461bcd60e51b815260040161101790614c31565b601581905560145460135461104191839161103b916136ad565b6000600a82815481106126e357634e487b7160e01b600052603260045260246000fd5b6000918252602090912001546001600160a01b031692915050565b6005546001600160a01b031633146127285760405162461bcd60e51b815260040161101790614c31565b601855565b6003815111801561273f575060208151105b61278b5760405162461bcd60e51b815260206004820181905260248201527f4e4f4445204352454154494f4e3a204e414d452053495a4520494e56414c49446044820152606401611017565b33806127f05760405162461bcd60e51b815260206004820152602e60248201527f4e4f4445204352454154494f4e3a20206372656174696f6e2066726f6d20746860448201526d65207a65726f206164647265737360901b6064820152608401611017565b6001600160a01b0381166000908152601d602052604090205460ff16156128645760405162461bcd60e51b815260206004820152602260248201527f4e4f4445204352454154494f4e3a20426c61636b6c6973746564206164647265604482015261737360f01b6064820152608401611017565b6010546001600160a01b0382811691161480159061289057506011546001600160a01b03828116911614155b6129025760405162461bcd60e51b815260206004820152603760248201527f4e4f4445204352454154494f4e3a20667574757220616e64207265776172647360448201527f506f6f6c2063616e6e6f7420637265617465206e6f64650000000000000000006064820152608401611017565b600d5460408051631e3fd85760e31b815290516000926001600160a01b03169163f1fec2b8916004808301926020929190829003018186803b15801561294757600080fd5b505afa15801561295b573d6000803e3d6000fd5b505050506040513d601f19601f8201168201806040525081019061297f91906149bf565b9050806129a1836001600160a01b031660009081526020819052604090205490565b1015612a045760405162461bcd60e51b815260206004820152602c60248201527f4e4f4445204352454154494f4e3a2042616c616e636520746f6f206c6f77206660448201526b37b91031b932b0ba34b7b71760a11b6064820152608401611017565b30600090815260208190526040902054601a5481108015908190612a2f5750601954610100900460ff165b8015612a3e575060195460ff16155b8015612a5857506005546001600160a01b03858116911614155b8015612a7d57506001600160a01b0384166000908152601e602052604090205460ff16155b15612b83576019805460ff19166001179055601554600090612aa790606490611b5f908690613d83565b601054909150612ac0906001600160a01b031682613fa1565b6000612adc6064611b5f60135487613d8390919063ffffffff16565b90506000612afa6064611b5f60185485613d8390919063ffffffff16565b601154909150612b13906001600160a01b031682613fa1565b601154612b349030906001600160a01b0316612b2f8585614042565b613d9b565b6000612b506064611b5f60145489613d8390919063ffffffff16565b9050612b5b8161404e565b30600090815260208190526040902054612b74906140d5565b50506019805460ff1916905550505b612b8e843085613d9b565b600d546040516312b8603f60e01b81526001600160a01b03909116906312b8603f90612bc09087908990600401614a4c565b600060405180830381600087803b158015612bda57600080fd5b505af1158015612bee573d6000803e3d6000fd5b505050505050505050565b6005546001600160a01b03163314612c235760405162461bcd60e51b815260040161101790614c31565b601180546001600160a01b0319166001600160a01b0392909216919091179055565b606060048054610f6a90614e0e565b6005546001600160a01b03163314612c7e5760405162461bcd60e51b815260040161101790614c31565b600f546001600160a01b0383811691161415612d155760405162461bcd60e51b815260206004820152604a60248201527f544b4e3a205468652050616e63616b655377617020706169722063616e6e6f7460448201527f2062652072656d6f7665642066726f6d206175746f6d617465644d61726b65746064820152694d616b6572506169727360b01b608482015260a401611017565b61165f828261425a565b6005546001600160a01b03163314612d495760405162461bcd60e51b815260040161101790614c31565b600d5460405163d1871a8960e01b8152600481018390526001600160a01b039091169063d1871a8990602401611cd9565b600d546040805163b8527aef60e01b815290516000926001600160a01b03169163b8527aef916004808301926020929190829003018186803b15801561117257600080fd5b3360009081526001602090815260408083206001600160a01b038616845290915281205482811015612e415760405162461bcd60e51b815260206004820152602560248201527f45524332303a2064656372656173656420616c6c6f77616e63652062656c6f77604482015264207a65726f60d81b6064820152608401611017565b612e4e3385858403613741565b5060019392505050565b600d5460408051631e3fd85760e31b815290516000926001600160a01b03169163f1fec2b8916004808301926020929190829003018186803b15801561117257600080fd5b6000611054338484613a6a565b6005546001600160a01b03163314612ed45760405162461bcd60e51b815260040161101790614c31565b60008111612f155760405162461bcd60e51b815260206004820152600e60248201526d416d6f756e7420746f6f206c6f7760901b6044820152606401611017565b601154612f2b906001600160a01b031682614343565b50565b6005546000906001600160a01b03163314612f5b5760405162461bcd60e51b815260040161101790614c31565b600d546040516330cd31af60e11b81526001600160a01b0384811660048301529091169063619a635e906024015b60206040518083038186803b158015612fa157600080fd5b505afa158015612fb5573d6000803e3d6000fd5b505050506040513d601f19601f82011682018060405250810190612fd991906149bf565b92915050565b606033612ffe5760405162461bcd60e51b815260040161101790614b72565b600d546001600160a01b03166341ac82b0336040516001600160e01b031960e084901b1681526001600160a01b03909116600482015260240160206040518083038186803b15801561304f57600080fd5b505afa158015613063573d6000803e3d6000fd5b505050506040513d601f19601f82011682018060405250810190613087919061488d565b6130a35760405162461bcd60e51b815260040161101790614b4b565b600d546001600160a01b031663c92819ce336112d2565b6005546001600160a01b031633146130e45760405162461bcd60e51b815260040161101790614c31565b601b55565b6005546001600160a01b031633146131135760405162461bcd60e51b815260040161101790614c31565b601c5460ff16156131665760405162461bcd60e51b815260206004820152601760248201527f54726164696e6720697320616c7265616479206f70656e0000000000000000006044820152606401611017565b601c805460ff19166001179055565b6005546001600160a01b0316331461319f5760405162461bcd60e51b815260040161101790614c31565b6001600160a01b03919091166000908152601f60205260409020805460ff1916911515919091179055565b6005546001600160a01b031633146131f45760405162461bcd60e51b815260040161101790614c31565b600d54604051636d58441560e11b815282151560048201526001600160a01b039091169063dab0882a90602401611cd9565b6005546001600160a01b031633146132505760405162461bcd60e51b815260040161101790614c31565b6001600160a01b03919091166000908152601d60205260409020805460ff1916911515919091179055565b600d546040805163fb10d6fb60e01b815290516000926001600160a01b03169163fb10d6fb916004808301926020929190829003018186803b15801561117257600080fd5b600d546040805163613ff46f60e01b815290516000926001600160a01b03169163613ff46f916004808301926020929190829003018186803b15801561117257600080fd5b6040516323b872dd60e01b815233600482015261dead6024820181905260448201839052738f37980d44f7487851346f4a5e5114d6b03dcf0a9182906323b872dd90606401602060405180830381600087803b15801561336457600080fd5b505af1158015613378573d6000803e3d6000fd5b505050506040513d601f19601f8201168201806040525081019061339c919061488d565b50601154611c39906001600160a01b03163385613d9b565b6060336133d35760405162461bcd60e51b815260040161101790614b72565b600d546001600160a01b03166341ac82b0336040516001600160e01b031960e084901b1681526001600160a01b03909116600482015260240160206040518083038186803b15801561342457600080fd5b505afa158015613438573d6000803e3d6000fd5b505050506040513d601f19601f8201168201806040525081019061345c919061488d565b6134785760405162461bcd60e51b815260040161101790614b4b565b600d546001600160a01b0316635759fb02336112d2565b6005546001600160a01b031633146134b95760405162461bcd60e51b815260040161101790614c31565b6001600160a01b03811661351e5760405162461bcd60e51b815260206004820152602660248201527f4f776e61626c653a206e6577206f776e657220697320746865207a65726f206160448201526564647265737360d01b6064820152608401611017565b612f2b81613ff0565b600d54604080516327b3bf1160e01b815290516000926001600160a01b0316916327b3bf11916004808301926020929190829003018186803b15801561117257600080fd5b600d5460405163112469f960e21b81526001600160a01b0383811660048301526000921690634491a7e490602401612f89565b600d5460408051636f60a39360e11b815290516000926001600160a01b03169163dec14726916004808301926020929190829003018186803b15801561117257600080fd5b600d54604080516385c44d9d60e01b815290516000926001600160a01b0316916385c44d9d916004808301926020929190829003018186803b15801561362957600080fd5b505afa15801561363d573d6000803e3d6000fd5b505050506040513d601f19601f820116820180604052508101906111aa919061488d565b6005546001600160a01b0316331461368b5760405162461bcd60e51b815260040161101790614c31565b600d80546001600160a01b0319166001600160a01b0392909216919091179055565b60006115ad8284614d74565b612f2b816040516024016136cd9190614a70565b60408051601f198184030181529190526020810180516001600160e01b031663104c13eb60e21b179052614423565b612f2b8160405160240161371291815260200190565b60408051601f198184030181529190526020810180516001600160e01b031663f5b1bba960e01b179052614423565b6001600160a01b0383166137a35760405162461bcd60e51b8152602060048201526024808201527f45524332303a20617070726f76652066726f6d20746865207a65726f206164646044820152637265737360e01b6064820152608401611017565b6001600160a01b0382166138045760405162461bcd60e51b815260206004820152602260248201527f45524332303a20617070726f766520746f20746865207a65726f206164647265604482015261737360f01b6064820152608401611017565b6138336040518060400160405280600d81526020016c5f617070726f7665207468697360981b81525030614444565b61385f604051806040016040528060088152602001675f617070726f766560c01b815250848484613ce8565b6001600160a01b038084166000908152600160209081526040808320938616808452848352818420869055815180830190925260088252675f617070726f766560c01b82840152909252919091526138b990848484613ce8565b816001600160a01b0316836001600160a01b03167f8c5be1e5ebec7d5bd14f71427d1e84f3dd0314c0f7b2291e5b200ac8c7c3b925836040516138fe91815260200190565b60405180910390a3505050565b6006546001600160a01b038416600090815260086020526040812054909183916139359086614dac565b61393f9190614d8c565b6139499190614dcb565b949350505050565b804710156139a15760405162461bcd60e51b815260206004820152601d60248201527f416464726573733a20696e73756666696369656e742062616c616e63650000006044820152606401611017565b6000826001600160a01b03168260405160006040518083038185875af1925050503d80600081146139ee576040519150601f19603f3d011682016040523d82523d6000602084013e6139f3565b606091505b5050905080611c395760405162461bcd60e51b815260206004820152603a60248201527f416464726573733a20756e61626c6520746f2073656e642076616c75652c207260448201527f6563697069656e74206d617920686176652072657665727465640000000000006064820152608401611017565b6001600160a01b038316613a905760405162461bcd60e51b815260040161101790614c66565b6001600160a01b038216613ab65760405162461bcd60e51b815260040161101790614b08565b6001600160a01b0383166000908152601d602052604090205460ff16158015613af857506001600160a01b0382166000908152601d602052604090205460ff16155b613b3a5760405162461bcd60e51b8152602060048201526013602482015272426c61636b6c6973746564206164647265737360681b6044820152606401611017565b6005546001600160a01b03848116911614801590613b6657506005546001600160a01b03838116911614155b8015613b7b57506001600160a01b0383163014155b8015613b9057506001600160a01b0382163014155b8015613bb557506001600160a01b0383166000908152601f602052604090205460ff16155b8015613bda57506001600160a01b0382166000908152601f602052604090205460ff16155b8015613bf45750600f546001600160a01b03838116911614155b8015613c0e5750600e546001600160a01b03838116911614155b15613cdd57601c5460ff1615613c94576001600160a01b038216600090815260208190526040902054601b54613c4483836136ad565b1115613c925760405162461bcd60e51b815260206004820152601860248201527f5472616e7366657220616d6f756e7420746f6f206869676800000000000000006044820152606401611017565b505b601c5460ff16158015613cb45750600f546001600160a01b038481169116145b15613cdd576001600160a01b0382166000908152601d60205260409020805460ff191660011790555b611c39838383613d9b565b6123cb84848484604051602401613d029493929190614aad565b60408051601f198184030181529190526020810180516001600160e01b0316636eb7943d60e01b179052614423565b604080516001600160a01b038416602482015260448082018490528251808303909101815260649091019091526020810180516001600160e01b031663a9059cbb60e01b179052611c39908490614489565b60006115ad8284614dac565b60006115ad8284614d8c565b6001600160a01b038316613dc15760405162461bcd60e51b815260040161101790614c66565b6001600160a01b038216613de75760405162461bcd60e51b815260040161101790614b08565b613e0b604051806060016040528060278152602001614e9960279139848484613ce8565b613e46604051806060016040528060278152602001614ec0602791396001600160a01b0385166000908152602081905260409020548361455b565b6001600160a01b03831660009081526020819052604090205481811015613ebe5760405162461bcd60e51b815260206004820152602660248201527f45524332303a207472616e7366657220616d6f756e7420657863656564732062604482015265616c616e636560d01b6064820152608401611017565b6001600160a01b03808516600090815260208190526040808220858503905591851681529081208054849290613ef5908490614d74565b92505081905550613f4f6040518060400160405280600b81526020016a5f7472616e73666572203360a81b8152508585600080886001600160a01b03166001600160a01b0316815260200190815260200160002054613ce8565b826001600160a01b0316846001600160a01b03167fddf252ad1be2c89b69c2b068fc378daa952ba7f163c4a11628f55a4df523b3ef84604051613f9491815260200190565b60405180910390a36123cb565b47613fab826140d5565b6000613fb74783614042565b6040519091506001600160a01b0385169082156108fc029083906000818181858888f19350505050158015611d07573d6000803e3d6000fd5b600580546001600160a01b038381166001600160a01b0319831681179093556040519116919082907f8be0079c531659141344cd1fd0a4f28419497f9722a3daafe3b4186f6b6457e090600090a35050565b60006115ad8284614dcb565b600061405b826002613d8f565b905060006140698383614042565b905047614075836140d5565b60006140814783614042565b905061408d83826145a2565b60408051858152602081018390529081018490527f17bbfb9a6069321b6ded73bd96327c9e6b7212a5cd51ff219cd61370acafb5619060600160405180910390a15050505050565b604080516002808252606082018352600092602083019080368337019050509050308160008151811061411857634e487b7160e01b600052603260045260246000fd5b6001600160a01b03928316602091820292909201810191909152600e54604080516339d94ae160e11b8152905191909316926373b295c2926004808301939192829003018186803b15801561416c57600080fd5b505afa158015614180573d6000803e3d6000fd5b505050506040513d601f19601f820116820180604052508101906141a49190614785565b816001815181106141c557634e487b7160e01b600052603260045260246000fd5b6001600160a01b039283166020918202929092010152600e546141eb9130911684613741565b600e54604051633b158ab160e11b81526001600160a01b039091169063762b156290614224908590600090869030904290600401614cab565b600060405180830381600087803b15801561423e57600080fd5b505af1158015614252573d6000803e3d6000fd5b505050505050565b6001600160a01b0382166000908152601e602052604090205460ff16151581151514156142ef5760405162461bcd60e51b815260206004820152603d60248201527f544b4e3a204175746f6d61746564206d61726b6574206d616b6572207061697260448201527f20697320616c72656164792073657420746f20746861742076616c75650000006064820152608401611017565b6001600160a01b0382166000818152601e6020526040808220805460ff191685151590811790915590519092917fffa9187bf1f18bf477bd0ea1bcbb64e93b6a98132473929edfce215cd9b16fab91a35050565b6001600160a01b0382166143995760405162461bcd60e51b815260206004820152601f60248201527f45524332303a206d696e7420746f20746865207a65726f2061646472657373006044820152606401611017565b80600260008282546143ab9190614d74565b90915550506001600160a01b038216600090815260208190526040812080548392906143d8908490614d74565b90915550506040518181526001600160a01b038316906000907fddf252ad1be2c89b69c2b068fc378daa952ba7f163c4a11628f55a4df523b3ef9060200160405180910390a361165f565b80516a636f6e736f6c652e6c6f67602083016000808483855afa5050505050565b61165f828260405160240161445a929190614a83565b60408051601f198184030181529190526020810180516001600160e01b031663319af33360e01b179052614423565b60006144de826040518060400160405280602081526020017f5361666545524332303a206c6f772d6c6576656c2063616c6c206661696c6564815250856001600160a01b031661465e9092919063ffffffff16565b805190915015611c3957808060200190518101906144fc919061488d565b611c395760405162461bcd60e51b815260206004820152602a60248201527f5361666545524332303a204552433230206f7065726174696f6e20646964206e6044820152691bdd081cdd58d8d9595960b21b6064820152608401611017565b611c3983838360405160240161457393929190614ae3565b60408051601f198184030181529190526020810180516001600160e01b031663969cdd0360e01b179052614423565b600e546145ba9030906001600160a01b031684613741565b600e54601254604051637c8d9fb960e11b81523060048201526024810185905260006044820181905260648201526001600160a01b0391821660848201524260a482015291169063f91b3f7290839060c4016060604051808303818588803b15801561462557600080fd5b505af1158015614639573d6000803e3d6000fd5b50505050506040513d601f19601f82011682018060405250810190611d0791906149d7565b6060613949848460008585843b6146b75760405162461bcd60e51b815260206004820152601d60248201527f416464726573733a2063616c6c20746f206e6f6e2d636f6e74726163740000006044820152606401611017565b600080866001600160a01b031685876040516146d39190614a30565b60006040518083038185875af1925050503d8060008114614710576040519150601f19603f3d011682016040523d82523d6000602084013e614715565b606091505b5091509150614725828286614730565b979650505050505050565b6060831561473f5750816115ad565b82511561474f5782518084602001fd5b8160405162461bcd60e51b81526004016110179190614a70565b60006020828403121561477a578081fd5b81356115ad81614e75565b600060208284031215614796578081fd5b81516115ad81614e75565b600080604083850312156147b3578081fd5b82356147be81614e75565b915060208301356147ce81614e75565b809150509250929050565b6000806000606084860312156147ed578081fd5b83356147f881614e75565b9250602084013561480881614e75565b929592945050506040919091013590565b6000806040838503121561482b578182fd5b823561483681614e75565b915060208301356147ce81614e8a565b60008060408385031215614858578182fd5b823561486381614e75565b946020939093013593505050565b600060208284031215614882578081fd5b81356115ad81614e8a565b60006020828403121561489e578081fd5b81516115ad81614e8a565b600080604083850312156147b3578182fd5b6000602082840312156148cc578081fd5b813567ffffffffffffffff8111156148e2578182fd5b8201601f810184136148f2578182fd5b803561490561490082614d4c565b614d1b565b818152856020838501011115614919578384fd5b81602084016020830137908101602001929092525092915050565b600060208284031215614945578081fd5b815167ffffffffffffffff81111561495b578182fd5b8201601f8101841361496b578182fd5b805161497961490082614d4c565b81815285602083850101111561498d578384fd5b61499e826020830160208601614de2565b95945050505050565b6000602082840312156149b8578081fd5b5035919050565b6000602082840312156149d0578081fd5b5051919050565b6000806000606084860312156149eb578081fd5b8351925060208401519150604084015190509250925092565b60008151808452614a1c816020860160208601614de2565b601f01601f19169290920160200192915050565b60008251614a42818460208701614de2565b9190910192915050565b6001600160a01b038316815260406020820181905260009061394990830184614a04565b6000602082526115ad6020830184614a04565b600060408252614a966040830185614a04565b905060018060a01b03831660208301529392505050565b600060808252614ac06080830187614a04565b6001600160a01b0395861660208401529390941660408201526060015292915050565b600060608252614af66060830186614a04565b60208301949094525060400152919050565b60208082526023908201527f45524332303a207472616e7366657220746f20746865207a65726f206164647260408201526265737360e81b606082015260800190565b6020808252600d908201526c2727902727a2229027aba722a960991b604082015260600190565b60208082526014908201527353454e4445522043414e2754204245205a45524f60601b604082015260600190565b60208082526026908201527f5061796d656e7453706c69747465723a206163636f756e7420686173206e6f2060408201526573686172657360d01b606082015260800190565b6020808252602b908201527f5061796d656e7453706c69747465723a206163636f756e74206973206e6f742060408201526a191d59481c185e5b595b9d60aa1b606082015260800190565b6020808252818101527f4f776e61626c653a2063616c6c6572206973206e6f7420746865206f776e6572604082015260600190565b60208082526025908201527f45524332303a207472616e736665722066726f6d20746865207a65726f206164604082015264647265737360d81b606082015260800190565b600060a082018783526020878185015260a0604085015281875180845260c0860191508289019350845b81811015614cfa5784516001600160a01b031683529383019391830191600101614cd5565b50506001600160a01b03969096166060850152505050608001529392505050565b604051601f8201601f1916810167ffffffffffffffff81118282101715614d4457614d44614e5f565b604052919050565b600067ffffffffffffffff821115614d6657614d66614e5f565b50601f01601f191660200190565b60008219821115614d8757614d87614e49565b500190565b600082614da757634e487b7160e01b81526012600452602481fd5b500490565b6000816000190483118215151615614dc657614dc6614e49565b500290565b600082821015614ddd57614ddd614e49565b500390565b60005b83811015614dfd578181015183820152602001614de5565b838111156123cb5750506000910152565b600281046001821680614e2257607f821691505b60208210811415614e4357634e487b7160e01b600052602260045260246000fd5b50919050565b634e487b7160e01b600052601160045260246000fd5b634e487b7160e01b600052604160045260246000fd5b6001600160a01b0381168114612f2b57600080fd5b8015158114612f2b57600080fdfe5f7472616e736665722031202d2073656e6465722c20726563697069656e742c20616d6f756e745f7472616e736665722032202d205f62616c616e6365735b73656e6465725d2c20616d6f756e74a2646970667358221220c59323dcc19390fa6e2d774b64e45ccb03ff912f4ec2e873e539273beff3a8c864736f6c63430008020033",
  "linkReferences": {},
  "deployedLinkReferences": {}
}