{
  "_format": "hh-sol-artifact-1",
  "contractName": "NODERewardManager",
  "sourceName": "contracts/NODERewardManager.sol",
  "abi": [
    {
      "inputs": [
        {
          "internalType": "address",
          "name": "oldNodeRewardManager",
          "type": "address"
        },
        {
          "internalType": "address",
          "name": "token",
          "type": "address"
        },
        {
          "internalType": "address[]",
          "name": "payees",
          "type": "address[]"
        },
        {
          "internalType": "uint256[]",
          "name": "shares",
          "type": "uint256[]"
        },
        {
          "internalType": "address[]",
          "name": "addresses",
          "type": "address[]"
        },
        {
          "internalType": "uint256[]",
          "name": "fees",
          "type": "uint256[]"
        },
        {
          "internalType": "uint256",
          "name": "swapAmount",
          "type": "uint256"
        },
        {
          "internalType": "address",
          "name": "uniV2Router",
          "type": "address"
        }
      ],
      "stateMutability": "nonpayable",
      "type": "constructor"
    },
    {
      "anonymous": false,
      "inputs": [
        {
          "indexed": true,
          "internalType": "contract IERC20",
          "name": "token",
          "type": "address"
        },
        {
          "indexed": false,
          "internalType": "address",
          "name": "to",
          "type": "address"
        },
        {
          "indexed": false,
          "internalType": "uint256",
          "name": "amount",
          "type": "uint256"
        }
      ],
      "name": "ERC20PaymentReleased",
      "type": "event"
    },
    {
      "anonymous": false,
      "inputs": [
        {
          "indexed": false,
          "internalType": "address",
          "name": "account",
          "type": "address"
        },
        {
          "indexed": false,
          "internalType": "uint256",
          "name": "shares",
          "type": "uint256"
        }
      ],
      "name": "PayeeAdded",
      "type": "event"
    },
    {
      "anonymous": false,
      "inputs": [
        {
          "indexed": false,
          "internalType": "address",
          "name": "from",
          "type": "address"
        },
        {
          "indexed": false,
          "internalType": "uint256",
          "name": "amount",
          "type": "uint256"
        }
      ],
      "name": "PaymentReceived",
      "type": "event"
    },
    {
      "anonymous": false,
      "inputs": [
        {
          "indexed": false,
          "internalType": "address",
          "name": "to",
          "type": "address"
        },
        {
          "indexed": false,
          "internalType": "uint256",
          "name": "amount",
          "type": "uint256"
        }
      ],
      "name": "PaymentReleased",
      "type": "event"
    },
    {
      "anonymous": false,
      "inputs": [
        {
          "indexed": false,
          "internalType": "uint256",
          "name": "tokensSwapped",
          "type": "uint256"
        },
        {
          "indexed": false,
          "internalType": "uint256",
          "name": "ethReceived",
          "type": "uint256"
        },
        {
          "indexed": false,
          "internalType": "uint256",
          "name": "tokensIntoLiqudity",
          "type": "uint256"
        }
      ],
      "name": "SwapAndLiquify",
      "type": "event"
    },
    {
      "inputs": [],
      "name": "_defaultNodeTypeName",
      "outputs": [
        {
          "internalType": "string",
          "name": "",
          "type": "string"
        }
      ],
      "stateMutability": "view",
      "type": "function"
    },
    {
      "inputs": [],
      "name": "_gateKeeper",
      "outputs": [
        {
          "internalType": "address",
          "name": "",
          "type": "address"
        }
      ],
      "stateMutability": "view",
      "type": "function"
    },
    {
      "inputs": [
        {
          "internalType": "address",
          "name": "",
          "type": "address"
        }
      ],
      "name": "_oldNodeIndexOfUser",
      "outputs": [
        {
          "internalType": "uint256",
          "name": "",
          "type": "uint256"
        }
      ],
      "stateMutability": "view",
      "type": "function"
    },
    {
      "inputs": [],
      "name": "_oldNodeRewardManager",
      "outputs": [
        {
          "internalType": "address",
          "name": "",
          "type": "address"
        }
      ],
      "stateMutability": "view",
      "type": "function"
    },
    {
      "inputs": [],
      "name": "_polarTokenAddress",
      "outputs": [
        {
          "internalType": "address",
          "name": "",
          "type": "address"
        }
      ],
      "stateMutability": "view",
      "type": "function"
    },
    {
      "inputs": [],
      "name": "_uniswapV2Router",
      "outputs": [
        {
          "internalType": "contract IJoeRouter02",
          "name": "",
          "type": "address"
        }
      ],
      "stateMutability": "view",
      "type": "function"
    },
    {
      "inputs": [
        {
          "internalType": "string",
          "name": "nodeTypeName",
          "type": "string"
        },
        {
          "internalType": "uint256[]",
          "name": "values",
          "type": "uint256[]"
        }
      ],
      "name": "addNodeType",
      "outputs": [],
      "stateMutability": "nonpayable",
      "type": "function"
    },
    {
      "inputs": [
        {
          "internalType": "address",
          "name": "user",
          "type": "address"
        }
      ],
      "name": "calculateAllClaimableRewards",
      "outputs": [
        {
          "internalType": "uint256",
          "name": "",
          "type": "uint256"
        }
      ],
      "stateMutability": "view",
      "type": "function"
    },
    {
      "inputs": [],
      "name": "cashoutAll",
      "outputs": [],
      "stateMutability": "nonpayable",
      "type": "function"
    },
    {
      "inputs": [],
      "name": "cashoutFee",
      "outputs": [
        {
          "internalType": "uint256",
          "name": "",
          "type": "uint256"
        }
      ],
      "stateMutability": "view",
      "type": "function"
    },
    {
      "inputs": [
        {
          "internalType": "string",
          "name": "nodeTypeName",
          "type": "string"
        },
        {
          "internalType": "uint256",
          "name": "nodePrice",
          "type": "uint256"
        },
        {
          "internalType": "uint256",
          "name": "claimTime",
          "type": "uint256"
        },
        {
          "internalType": "uint256",
          "name": "rewardAmount",
          "type": "uint256"
        },
        {
          "internalType": "uint256",
          "name": "claimTaxBeforeTime",
          "type": "uint256"
        },
        {
          "internalType": "uint256",
          "name": "max",
          "type": "uint256"
        },
        {
          "internalType": "uint256",
          "name": "earlyClaimTax",
          "type": "uint256"
        },
        {
          "internalType": "uint256",
          "name": "maxLevelUpGlobal",
          "type": "uint256"
        },
        {
          "internalType": "uint256",
          "name": "maxLevelUpUser",
          "type": "uint256"
        },
        {
          "internalType": "uint256",
          "name": "maxCreationPendingGlobal",
          "type": "uint256"
        },
        {
          "internalType": "uint256",
          "name": "maxCreationPendingUser",
          "type": "uint256"
        }
      ],
      "name": "changeNodeType",
      "outputs": [],
      "stateMutability": "nonpayable",
      "type": "function"
    },
    {
      "inputs": [
        {
          "internalType": "string",
          "name": "nodeTypeName",
          "type": "string"
        },
        {
          "internalType": "uint256",
          "name": "count",
          "type": "uint256"
        }
      ],
      "name": "createNodeWithPending",
      "outputs": [],
      "stateMutability": "nonpayable",
      "type": "function"
    },
    {
      "inputs": [
        {
          "internalType": "string",
          "name": "nodeTypeName",
          "type": "string"
        },
        {
          "internalType": "uint256",
          "name": "count",
          "type": "uint256"
        }
      ],
      "name": "createNodeWithTokens",
      "outputs": [],
      "stateMutability": "nonpayable",
      "type": "function"
    },
    {
      "inputs": [],
      "name": "distributionPool",
      "outputs": [
        {
          "internalType": "address",
          "name": "",
          "type": "address"
        }
      ],
      "stateMutability": "view",
      "type": "function"
    },
    {
      "inputs": [],
      "name": "futurFee",
      "outputs": [
        {
          "internalType": "uint256",
          "name": "",
          "type": "uint256"
        }
      ],
      "stateMutability": "view",
      "type": "function"
    },
    {
      "inputs": [],
      "name": "futurUsePool",
      "outputs": [
        {
          "internalType": "address",
          "name": "",
          "type": "address"
        }
      ],
      "stateMutability": "view",
      "type": "function"
    },
    {
      "inputs": [
        {
          "internalType": "string",
          "name": "nodeTypeName",
          "type": "string"
        }
      ],
      "name": "getNodeTypeAll",
      "outputs": [
        {
          "internalType": "uint256[]",
          "name": "",
          "type": "uint256[]"
        }
      ],
      "stateMutability": "view",
      "type": "function"
    },
    {
      "inputs": [
        {
          "internalType": "uint256",
          "name": "i",
          "type": "uint256"
        }
      ],
      "name": "getNodeTypeNameAtIndex",
      "outputs": [
        {
          "internalType": "string",
          "name": "",
          "type": "string"
        }
      ],
      "stateMutability": "view",
      "type": "function"
    },
    {
      "inputs": [
        {
          "internalType": "string",
          "name": "nodeTypeName",
          "type": "string"
        },
        {
          "internalType": "uint256",
          "name": "i",
          "type": "uint256"
        }
      ],
      "name": "getNodeTypeNameData",
      "outputs": [
        {
          "internalType": "uint256",
          "name": "",
          "type": "uint256"
        }
      ],
      "stateMutability": "view",
      "type": "function"
    },
    {
      "inputs": [
        {
          "internalType": "string",
          "name": "nodeTypeName",
          "type": "string"
        },
        {
          "internalType": "address",
          "name": "_owner",
          "type": "address"
        }
      ],
      "name": "getNodeTypeOwnerNumber",
      "outputs": [
        {
          "internalType": "uint256",
          "name": "",
          "type": "uint256"
        }
      ],
      "stateMutability": "view",
      "type": "function"
    },
    {
      "inputs": [
        {
          "internalType": "uint256",
          "name": "start",
          "type": "uint256"
        },
        {
          "internalType": "uint256",
          "name": "end",
          "type": "uint256"
        }
      ],
      "name": "getNodeTypesAllAt",
      "outputs": [
        {
          "internalType": "uint256[][]",
          "name": "",
          "type": "uint256[][]"
        }
      ],
      "stateMutability": "view",
      "type": "function"
    },
    {
      "inputs": [],
      "name": "getNodeTypesSize",
      "outputs": [
        {
          "internalType": "uint256",
          "name": "",
          "type": "uint256"
        }
      ],
      "stateMutability": "view",
      "type": "function"
    },
    {
      "inputs": [],
      "name": "getTotalCreatedNodes",
      "outputs": [
        {
          "internalType": "uint256",
          "name": "",
          "type": "uint256"
        }
      ],
      "stateMutability": "view",
      "type": "function"
    },
    {
      "inputs": [
        {
          "internalType": "address",
          "name": "who",
          "type": "address"
        }
      ],
      "name": "getTotalCreatedNodesOf",
      "outputs": [
        {
          "internalType": "uint256",
          "name": "",
          "type": "uint256"
        }
      ],
      "stateMutability": "view",
      "type": "function"
    },
    {
      "inputs": [
        {
          "internalType": "string[]",
          "name": "nodeTypeNames",
          "type": "string[]"
        },
        {
          "internalType": "string",
          "name": "target",
          "type": "string"
        }
      ],
      "name": "levelUp",
      "outputs": [],
      "stateMutability": "nonpayable",
      "type": "function"
    },
    {
      "inputs": [],
      "name": "liquidityPoolFee",
      "outputs": [
        {
          "internalType": "uint256",
          "name": "",
          "type": "uint256"
        }
      ],
      "stateMutability": "view",
      "type": "function"
    },
    {
      "inputs": [
        {
          "internalType": "address",
          "name": "user",
          "type": "address"
        },
        {
          "internalType": "uint256",
          "name": "nb",
          "type": "uint256"
        }
      ],
      "name": "migrateNodes",
      "outputs": [],
      "stateMutability": "nonpayable",
      "type": "function"
    },
    {
      "inputs": [
        {
          "internalType": "uint256",
          "name": "index",
          "type": "uint256"
        }
      ],
      "name": "payee",
      "outputs": [
        {
          "internalType": "address",
          "name": "",
          "type": "address"
        }
      ],
      "stateMutability": "view",
      "type": "function"
    },
    {
      "inputs": [],
      "name": "poolHandler",
      "outputs": [
        {
          "internalType": "address",
          "name": "",
          "type": "address"
        }
      ],
      "stateMutability": "view",
      "type": "function"
    },
    {
      "inputs": [
        {
          "internalType": "address payable",
          "name": "account",
          "type": "address"
        }
      ],
      "name": "release",
      "outputs": [],
      "stateMutability": "nonpayable",
      "type": "function"
    },
    {
      "inputs": [
        {
          "internalType": "contract IERC20",
          "name": "token",
          "type": "address"
        },
        {
          "internalType": "address",
          "name": "account",
          "type": "address"
        }
      ],
      "name": "release",
      "outputs": [],
      "stateMutability": "nonpayable",
      "type": "function"
    },
    {
      "inputs": [
        {
          "internalType": "contract IERC20",
          "name": "token",
          "type": "address"
        },
        {
          "internalType": "address",
          "name": "account",
          "type": "address"
        }
      ],
      "name": "released",
      "outputs": [
        {
          "internalType": "uint256",
          "name": "",
          "type": "uint256"
        }
      ],
      "stateMutability": "view",
      "type": "function"
    },
    {
      "inputs": [
        {
          "internalType": "address",
          "name": "account",
          "type": "address"
        }
      ],
      "name": "released",
      "outputs": [
        {
          "internalType": "uint256",
          "name": "",
          "type": "uint256"
        }
      ],
      "stateMutability": "view",
      "type": "function"
    },
    {
      "inputs": [],
      "name": "rewardsFee",
      "outputs": [
        {
          "internalType": "uint256",
          "name": "",
          "type": "uint256"
        }
      ],
      "stateMutability": "view",
      "type": "function"
    },
    {
      "inputs": [
        {
          "internalType": "string",
          "name": "nodeTypeName",
          "type": "string"
        }
      ],
      "name": "setDefaultNodeTypeName",
      "outputs": [],
      "stateMutability": "nonpayable",
      "type": "function"
    },
    {
      "inputs": [
        {
          "internalType": "address",
          "name": "token",
          "type": "address"
        }
      ],
      "name": "setToken",
      "outputs": [],
      "stateMutability": "nonpayable",
      "type": "function"
    },
    {
      "inputs": [
        {
          "internalType": "address",
          "name": "account",
          "type": "address"
        }
      ],
      "name": "shares",
      "outputs": [
        {
          "internalType": "uint256",
          "name": "",
          "type": "uint256"
        }
      ],
      "stateMutability": "view",
      "type": "function"
    },
    {
      "inputs": [],
      "name": "swapTokensAmount",
      "outputs": [
        {
          "internalType": "uint256",
          "name": "",
          "type": "uint256"
        }
      ],
      "stateMutability": "view",
      "type": "function"
    },
    {
      "inputs": [],
      "name": "totalFees",
      "outputs": [
        {
          "internalType": "uint256",
          "name": "",
          "type": "uint256"
        }
      ],
      "stateMutability": "view",
      "type": "function"
    },
    {
      "inputs": [
        {
          "internalType": "contract IERC20",
          "name": "token",
          "type": "address"
        }
      ],
      "name": "totalReleased",
      "outputs": [
        {
          "internalType": "uint256",
          "name": "",
          "type": "uint256"
        }
      ],
      "stateMutability": "view",
      "type": "function"
    },
    {
      "inputs": [],
      "name": "totalReleased",
      "outputs": [
        {
          "internalType": "uint256",
          "name": "",
          "type": "uint256"
        }
      ],
      "stateMutability": "view",
      "type": "function"
    },
    {
      "inputs": [],
      "name": "totalShares",
      "outputs": [
        {
          "internalType": "uint256",
          "name": "",
          "type": "uint256"
        }
      ],
      "stateMutability": "view",
      "type": "function"
    },
    {
      "inputs": [
        {
          "internalType": "uint256",
          "name": "value",
          "type": "uint256"
        }
      ],
      "name": "updateCashoutFee",
      "outputs": [],
      "stateMutability": "nonpayable",
      "type": "function"
    },
    {
      "inputs": [
        {
          "internalType": "uint256",
          "name": "value",
          "type": "uint256"
        }
      ],
      "name": "updateFuturFee",
      "outputs": [],
      "stateMutability": "nonpayable",
      "type": "function"
    },
    {
      "inputs": [
        {
          "internalType": "address payable",
          "name": "wall",
          "type": "address"
        }
      ],
      "name": "updateFuturWall",
      "outputs": [],
      "stateMutability": "nonpayable",
      "type": "function"
    },
    {
      "inputs": [
        {
          "internalType": "address",
          "name": "_new",
          "type": "address"
        }
      ],
      "name": "updateGateKeeper",
      "outputs": [],
      "stateMutability": "nonpayable",
      "type": "function"
    },
    {
      "inputs": [
        {
          "internalType": "uint256",
          "name": "value",
          "type": "uint256"
        }
      ],
      "name": "updateLiquiditFee",
      "outputs": [],
      "stateMutability": "nonpayable",
      "type": "function"
    },
    {
      "inputs": [
        {
          "internalType": "bool",
          "name": "value",
          "type": "bool"
        }
      ],
      "name": "updateOpenCreate",
      "outputs": [],
      "stateMutability": "nonpayable",
      "type": "function"
    },
    {
      "inputs": [
        {
          "internalType": "bool",
          "name": "value",
          "type": "bool"
        }
      ],
      "name": "updateOpenLevelUp",
      "outputs": [],
      "stateMutability": "nonpayable",
      "type": "function"
    },
    {
      "inputs": [
        {
          "internalType": "bool",
          "name": "value",
          "type": "bool"
        }
      ],
      "name": "updateOpenMigrate",
      "outputs": [],
      "stateMutability": "nonpayable",
      "type": "function"
    },
    {
      "inputs": [
        {
          "internalType": "uint256",
          "name": "value",
          "type": "uint256"
        }
      ],
      "name": "updateRewardsFee",
      "outputs": [],
      "stateMutability": "nonpayable",
      "type": "function"
    },
    {
      "inputs": [
        {
          "internalType": "address payable",
          "name": "wall",
          "type": "address"
        }
      ],
      "name": "updateRewardsWall",
      "outputs": [],
      "stateMutability": "nonpayable",
      "type": "function"
    },
    {
      "inputs": [
        {
          "internalType": "uint256",
          "name": "newVal",
          "type": "uint256"
        }
      ],
      "name": "updateSwapTokensAmount",
      "outputs": [],
      "stateMutability": "nonpayable",
      "type": "function"
    },
    {
      "inputs": [
        {
          "internalType": "address",
          "name": "newAddress",
          "type": "address"
        }
      ],
      "name": "updateUniswapV2Router",
      "outputs": [],
      "stateMutability": "nonpayable",
      "type": "function"
    },
    {
      "stateMutability": "payable",
      "type": "receive"
    }
  ],
  "bytecode": "0x6080604052601c805461ffff1916610100179055601e805462ffffff191690553480156200002c57600080fd5b5060405162006757380380620067578339810160408190526200004f916200092a565b85858051825114620000c35760405162461bcd60e51b815260206004820152603260248201527f5061796d656e7453706c69747465723a2070617965657320616e6420736861726044820152710cae640d8cadccee8d040dad2e6dac2e8c6d60731b60648201526084015b60405180910390fd5b6000825111620001165760405162461bcd60e51b815260206004820152601a60248201527f5061796d656e7453706c69747465723a206e6f207061796565730000000000006044820152606401620000ba565b60005b82518110156200019a57620001858382815181106200014857634e487b7160e01b600052603260045260246000fd5b60200260200101518383815181106200017157634e487b7160e01b600052603260045260246000fd5b60200260200101516200064360201b60201c565b80620001918162000ab7565b91505062000119565b5050600f8054336001600160a01b0319918216179091556011805482166001600160a01b038c81169190911790915560108054909216908a161790555083518490600090620001f957634e487b7160e01b600052603260045260246000fd5b6020026020010151601460006101000a8154816001600160a01b0302191690836001600160a01b03160217905550836001815181106200024957634e487b7160e01b600052603260045260246000fd5b6020026020010151601560006101000a8154816001600160a01b0302191690836001600160a01b03160217905550836002815181106200029957634e487b7160e01b600052603260045260246000fd5b6020908102919091010151601680546001600160a01b0319166001600160a01b039283161790556014541615801590620002dd57506015546001600160a01b031615155b8015620002f457506016546001600160a01b031615155b620003565760405162461bcd60e51b815260206004820152602b60248201527f46555455522c20524557415244202620504f4f4c20414444524553532043414e60448201526a4e4f54204245205a45524f60a81b6064820152608401620000ba565b6001600160a01b038116620003ae5760405162461bcd60e51b815260206004820152601560248201527f524f555445522043414e4e4f54204245205a45524f00000000000000000000006044820152606401620000ba565b601380546001600160a01b0319166001600160a01b03831617905582518390600090620003eb57634e487b7160e01b600052603260045260246000fd5b60200260200101516000141580156200042e5750826001815181106200042157634e487b7160e01b600052603260045260246000fd5b6020026020010151600014155b8015620004655750826002815181106200045857634e487b7160e01b600052603260045260246000fd5b6020026020010151600014155b80156200049c5750826003815181106200048f57634e487b7160e01b600052603260045260246000fd5b6020026020010151600014155b620004ea5760405162461bcd60e51b815260206004820152601460248201527f434f4e5354523a204665657320657175616c20300000000000000000000000006044820152606401620000ba565b826000815181106200050c57634e487b7160e01b600052603260045260246000fd5b6020026020010151601981905550826001815181106200053c57634e487b7160e01b600052603260045260246000fd5b6020026020010151601781905550826002815181106200056c57634e487b7160e01b600052603260045260246000fd5b6020026020010151601881905550826003815181106200059c57634e487b7160e01b600052603260045260246000fd5b6020026020010151601b81905550601954601854601754620005bf919062000a7a565b620005cb919062000a7a565b601a55816200061d5760405162461bcd60e51b815260206004820152601d60248201527f434f4e5354523a205377617020616d6f756e7420696e636f72726563740000006044820152606401620000ba565b6200063182670de0b6b3a764000062000a95565b601d555062000b019650505050505050565b6001600160a01b038216620006b05760405162461bcd60e51b815260206004820152602c60248201527f5061796d656e7453706c69747465723a206163636f756e74206973207468652060448201526b7a65726f206164647265737360a01b6064820152608401620000ba565b60008111620007025760405162461bcd60e51b815260206004820152601d60248201527f5061796d656e7453706c69747465723a207368617265732061726520300000006044820152606401620000ba565b6001600160a01b038216600090815260026020526040902054156200077e5760405162461bcd60e51b815260206004820152602b60248201527f5061796d656e7453706c69747465723a206163636f756e7420616c726561647960448201526a206861732073686172657360a81b6064820152608401620000ba565b60048054600181019091557f8a35acfbc15ff81a39ae7d344fd709f28e8600b4aa8c65c6b64bfe7fe36bd19b0180546001600160a01b0319166001600160a01b038416908117909155600090815260026020526040812082905554620007e690829062000a7a565b600055604080516001600160a01b0384168152602081018390527f40c340f65e17194d14ddddb073d3c9f888e3cb52b5aae0c6c7706b4fbc905fac910160405180910390a15050565b80516001600160a01b03811681146200084757600080fd5b919050565b600082601f8301126200085d578081fd5b8151602062000876620008708362000a54565b62000a21565b828152818101908583018385028701840188101562000893578586fd5b855b85811015620008bc57620008a9826200082f565b8452928401929084019060010162000895565b5090979650505050505050565b600082601f830112620008da578081fd5b81516020620008ed620008708362000a54565b82815281810190858301838502870184018810156200090a578586fd5b855b85811015620008bc578151845292840192908401906001016200090c565b600080600080600080600080610100898b03121562000947578384fd5b62000952896200082f565b97506200096260208a016200082f565b60408a01519097506001600160401b03808211156200097f578586fd5b6200098d8c838d016200084c565b975060608b0151915080821115620009a3578586fd5b620009b18c838d01620008c9565b965060808b0151915080821115620009c7578586fd5b620009d58c838d016200084c565b955060a08b0151915080821115620009eb578485fd5b50620009fa8b828c01620008c9565b93505060c0890151915062000a1260e08a016200082f565b90509295985092959890939650565b604051601f8201601f191681016001600160401b038111828210171562000a4c5762000a4c62000aeb565b604052919050565b60006001600160401b0382111562000a705762000a7062000aeb565b5060209081020190565b6000821982111562000a905762000a9062000ad5565b500190565b600081600019048311821515161562000ab25762000ab262000ad5565b500290565b600060001982141562000ace5762000ace62000ad5565b5060010190565b634e487b7160e01b600052601160045260246000fd5b634e487b7160e01b600052604160045260246000fd5b615c468062000b116000396000f3fe6080604052600436106103395760003560e01c8063795e0113116101ab578063c4c69038116100f7578063d8a911d911610095578063ea84397b1161006f578063ea84397b146109df578063ef630563146109ff578063f5368c2914610a1f578063f54549bc14610a4c57610382565b8063d8a911d91461098a578063e19d3c48146109aa578063e33b7de3146109ca57610382565b8063ce7c2ac2116100d1578063ce7c2ac2146108dc578063d061943914610912578063d6a0d2ee1461093f578063d79779b21461095457610382565b8063c4c6903814610887578063c5ca7d6d146108a7578063ca721f22146108c757610382565b80639f3b0abe11610164578063ab5747611161013e578063ab57476114610811578063ae8369e814610827578063b649224714610847578063bbc679981461086757610382565b80639f3b0abe146107af578063a0a8fe65146107dc578063a538ddf2146107f157610382565b8063795e0113146106d957806388c41d7c146106f95780638b83209b146107195780639349c47d146107395780639852595c146107595780639cfccb461461078f57610382565b806342bc9fca11610285578063583e0568116102235780636770474b116101fd5780636770474b146106635780636815a91c1461068357806369d0013b146106a35780636d9ae0be146106c357610382565b8063583e05681461060d5780635f1c31821461062d57806365b8dbc01461064357610382565b80634c0768fc1161025f5780634c0768fc146105a25780634c7f490e146105c257806354557973146105e257806354f12f1f146105f757610382565b806342bc9fca1461053557806347aab1f81461055557806348b750441461058257610382565b806319165587116102f25780632bb14e1d116102cc5780632bb14e1d146104ca5780633a98ef39146104e05780633f8bdd22146104f5578063406072a91461051557610382565b80631916558714610452578063255d7d55146104725780632a6078411461049257610382565b806301251f2a14610387578063035f722b146103ba578063084a6bff146103dc5780630c08f300146103fc57806313114a9d1461041c578063144fa6d71461043257610382565b36610382577f6ef95f06320e7a25a04a175ca677b7052bdd97131872c2192525a629f51be77033604080516001600160a01b0390921682523460208301520160405180910390a1005b600080fd5b34801561039357600080fd5b506103a76103a2366004615223565b610a6c565b6040519081526020015b60405180910390f35b3480156103c657600080fd5b506103da6103d5366004615436565b610cfc565b005b3480156103e857600080fd5b506103da6103f73660046156a7565b61104e565b34801561040857600080fd5b506103da610417366004615223565b6110b2565b34801561042857600080fd5b506103a7601a5481565b34801561043e57600080fd5b506103da61044d366004615223565b611113565b34801561045e57600080fd5b506103da61046d366004615223565b611174565b34801561047e57600080fd5b506103da61048d366004615286565b6112a2565b34801561049e57600080fd5b506016546104b2906001600160a01b031681565b6040516001600160a01b0390911681526020016103b1565b3480156104d657600080fd5b506103a760175481565b3480156104ec57600080fd5b506000546103a7565b34801561050157600080fd5b506103da610510366004615223565b61180b565b34801561052157600080fd5b506103a761053036600461536e565b61186c565b34801561054157600080fd5b506103da6105503660046156a7565b611899565b34801561056157600080fd5b506105756105703660046156bf565b6118ee565b6040516103b1919061578f565b34801561058e57600080fd5b506103da61059d36600461536e565b611a41565b3480156105ae57600080fd5b506103da6105bd366004615336565b611c03565b3480156105ce57600080fd5b506103a76105dd366004615223565b611c5c565b3480156105ee57600080fd5b506103da611d35565b34801561060357600080fd5b506103a760185481565b34801561061957600080fd5b506013546104b2906001600160a01b031681565b34801561063957600080fd5b506103a7601d5481565b34801561064f57600080fd5b506103da61065e366004615223565b6120da565b34801561066f57600080fd5b506103da61067e3660046156a7565b6121aa565b34801561068f57600080fd5b506103da61069e3660046156a7565b6121ee565b3480156106af57600080fd5b506103da6106be366004615336565b612232565b3480156106cf57600080fd5b506103a7601b5481565b3480156106e557600080fd5b506103a76106f43660046154ef565b612284565b34801561070557600080fd5b506103da6107143660046156a7565b61296a565b34801561072557600080fd5b506104b26107343660046156a7565b6129bf565b34801561074557600080fd5b506103da610754366004615223565b6129fd565b34801561076557600080fd5b506103a7610774366004615223565b6001600160a01b031660009081526003602052604090205490565b34801561079b57600080fd5b506010546104b2906001600160a01b031681565b3480156107bb57600080fd5b506107cf6107ca3660046156a7565b612a5e565b6040516103b19190615802565b3480156107e857600080fd5b506103a7612af6565b3480156107fd57600080fd5b506014546104b2906001600160a01b031681565b34801561081d57600080fd5b506103a760195481565b34801561083357600080fd5b506103da61084236600461525b565b612c3b565b34801561085357600080fd5b506103da6108623660046154ef565b612fa5565b34801561087357600080fd5b506103da6108823660046154ef565b613550565b34801561089357600080fd5b506103da6108a2366004615532565b613a97565b3480156108b357600080fd5b506015546104b2906001600160a01b031681565b3480156108d357600080fd5b506107cf613c69565b3480156108e857600080fd5b506103a76108f7366004615223565b6001600160a01b031660009081526002602052604090205490565b34801561091e57600080fd5b5061093261092d3660046153be565b613cf7565b6040516103b191906157ef565b34801561094b57600080fd5b506103a7614137565b34801561096057600080fd5b506103a761096f366004615223565b6001600160a01b031660009081526005602052604090205490565b34801561099657600080fd5b506103a76109a53660046153f1565b6141c2565b3480156109b657600080fd5b506103da6109c5366004615336565b614218565b3480156109d657600080fd5b506001546103a7565b3480156109eb57600080fd5b506011546104b2906001600160a01b031681565b348015610a0b57600080fd5b50600f546104b2906001600160a01b031681565b348015610a2b57600080fd5b506103a7610a3a366004615223565b600e6020526000908152604090205481565b348015610a5857600080fd5b506103da610a673660046153be565b614273565b6000610a7661504e565b6000805b604051630fd2479b60e31b81526007600482015273__$f4f4ad711baf0b6680854290afed407660$__90637e923cd89060240160206040518083038186803b158015610ac557600080fd5b505af4158015610ad9573d6000803e3d6000fd5b505050506040513d601f19601f82011682018060405250810190610afd91906153a6565b811015610cf457604051633846629960e01b8152600760048201526024810182905273__$f4f4ad711baf0b6680854290afed407660$__9063384662999060440160006040518083038186803b158015610b5657600080fd5b505af4158015610b6a573d6000803e3d6000fd5b505050506040513d6000823e601f3d908101601f19168201604052610b9291908101906155c4565b92506000600b8460000151604051610baa9190615773565b90815260408051602092819003830190206001600160a01b03891660009081529252812091505b8154811015610cdf57610cc1828281548110610bfd57634e487b7160e01b600052603260045260246000fd5b9060005260206000209060030201604051806060016040529081600082018054610c2690615b6b565b80601f0160208091040260200160405190810160405280929190818152602001828054610c5290615b6b565b8015610c9f5780601f10610c7457610100808354040283529160200191610c9f565b820191906000526020600020905b815481529060010190602001808311610c8257829003601f168201915b5050505050815260200160018201548152602001600282015481525050614315565b610ccb9085615ad1565b935080610cd781615ba6565b915050610bd1565b50508080610cec90615ba6565b915050610a7a565b509392505050565b6010546001600160a01b0316331480610d1f5750600f546001600160a01b031633145b610d445760405162461bcd60e51b8152600401610d3b906158ee565b60405180910390fd5b6000825111610d955760405162461bcd60e51b815260206004820152601760248201527f6164644e6f6465547970653a20456d707479206e616d650000000000000000006044820152606401610d3b565b610d9e826145c3565b15610dfa5760405162461bcd60e51b815260206004820152602660248201527f6164644e6f6465547970653a2073616d65206e6f6465547970654e616d6520656044820152653c34b9ba399760d11b6064820152608401610d3b565b600773__$f4f4ad711baf0b6680854290afed407660$__634174008590918460405180610180016040528087815260200186600081518110610e4c57634e487b7160e01b600052603260045260246000fd5b6020026020010151815260200186600181518110610e7a57634e487b7160e01b600052603260045260246000fd5b6020026020010151815260200186600281518110610ea857634e487b7160e01b600052603260045260246000fd5b6020026020010151815260200186600381518110610ed657634e487b7160e01b600052603260045260246000fd5b602002602001015181526020016000815260200186600481518110610f0b57634e487b7160e01b600052603260045260246000fd5b6020026020010151815260200186600581518110610f3957634e487b7160e01b600052603260045260246000fd5b6020026020010151815260200186600681518110610f6757634e487b7160e01b600052603260045260246000fd5b6020026020010151815260200186600781518110610f9557634e487b7160e01b600052603260045260246000fd5b6020026020010151815260200186600881518110610fc357634e487b7160e01b600052603260045260246000fd5b6020026020010151815260200186600981518110610ff157634e487b7160e01b600052603260045260246000fd5b60200260200101518152506040518463ffffffff1660e01b815260040161101a93929190615929565b60006040518083038186803b15801561103257600080fd5b505af4158015611046573d6000803e3d6000fd5b505050505050565b6010546001600160a01b03163314806110715750600f546001600160a01b031633145b61108d5760405162461bcd60e51b8152600401610d3b906158ee565b60178190556019546018546110a29083615ad1565b6110ac9190615ad1565b601a5550565b6010546001600160a01b03163314806110d55750600f546001600160a01b031633145b6110f15760405162461bcd60e51b8152600401610d3b906158ee565b601480546001600160a01b0319166001600160a01b0392909216919091179055565b6010546001600160a01b03163314806111365750600f546001600160a01b031633145b6111525760405162461bcd60e51b8152600401610d3b906158ee565b601080546001600160a01b0319166001600160a01b0392909216919091179055565b6001600160a01b0381166000908152600260205260409020546111a95760405162461bcd60e51b8152600401610d3b90615815565b60006111b460015490565b6111be9047615ad1565b905060006111eb83836111e6866001600160a01b031660009081526003602052604090205490565b61465a565b90508061120a5760405162461bcd60e51b8152600401610d3b9061585b565b6001600160a01b03831660009081526003602052604081208054839290611232908490615ad1565b92505081905550806001600082825461124b9190615ad1565b9091555061125b90508382614695565b604080516001600160a01b0385168152602081018390527fdf20fd1e76bc69d672e4814fafb2c449bba3a5369d8359adf9e05e6fde87b056910160405180910390a1505050565b601e5462010000900460ff166112fa5760405162461bcd60e51b815260206004820181905260248201527f4e6f6465206c6576656c207570206e6f7420617574686f72697a6564207965746044820152606401610d3b565b611303816145c3565b6113455760405162461bcd60e51b81526020600482015260136024820152721d185c99d95d08191bd95cdb9d08195e1a5cdd606a1b6044820152606401610d3b565b604051635bce6b3b60e01b815260009073__$f4f4ad711baf0b6680854290afed407660$__90635bce6b3b90611382906007908690600401615910565b60206040518083038186803b15801561139a57600080fd5b505af41580156113ae573d6000803e3d6000fd5b505050506040513d601f19601f820116820180604052508101906113d291906153a6565b90506001816008015410156114375760405162461bcd60e51b815260206004820152602560248201527f4e6f206f6e652063616e206c6576656c20757020746869732074797065206f66604482015264206e6f646560d81b6064820152608401610d3b565b600181600801600082825461144c9190615b28565b925050819055506001600c836040516114659190615773565b9081526040805160209281900383019020336000908152925281208054909190611490908490615ad1565b90915550506009810154604051600c906114ab908590615773565b9081526040805160209281900383019020336000908152925290205411156115155760405162461bcd60e51b815260206004820152601f60248201527f4c6576656c207570206c696d6974207265616368656420666f722075736572006044820152606401610d3b565b60018101548060005b85518110801561152e5750600082115b156117b757600086828151811061155557634e487b7160e01b600052603260045260246000fd5b60200260200101519050611568816145c3565b6115a85760405162461bcd60e51b81526020600482015260116024820152701b985b5948191bd95cdb9d08195e1a5cdd607a1b6044820152606401610d3b565b6000600b826040516115ba9190615773565b908152604080516020928190038301902033600090815292529020541161160f5760405162461bcd60e51b8152602060048201526009602482015268139bdd081bdddb995960ba1b6044820152606401610d3b565b604051635bce6b3b60e01b815260009073__$f4f4ad711baf0b6680854290afed407660$__90635bce6b3b9061164c906007908690600401615910565b60206040518083038186803b15801561166457600080fd5b505af4158015611678573d6000803e3d6000fd5b505050506040513d601f19601f8201168201806040525081019061169c91906153a6565b9050806001015485116116e55760405162461bcd60e51b815260206004820152601160248201527021b0b73737ba103632bb32b6103237bbb760791b6044820152606401610d3b565b600b826040516116f59190615773565b90815260408051602092819003830190203360009081529252902080548061172d57634e487b7160e01b600052603160045260246000fd5b6000828152602081206000199092019160038302019061174d82826150af565b600182016000905560028201600090555050905560018160050160008282546117769190615b28565b9091555050600181015484101561179057600093506117a2565b600181015461179f9085615b28565b93505b505080806117af90615ba6565b91505061151e565b5080156117f85760405162461bcd60e51b815260206004820152600f60248201526e139bdd08195b9bdd59da081cd95b9d608a1b6044820152606401610d3b565b611804338560016147b3565b5050505050565b6010546001600160a01b031633148061182e5750600f546001600160a01b031633145b61184a5760405162461bcd60e51b8152600401610d3b906158ee565b600f80546001600160a01b0319166001600160a01b0392909216919091179055565b6001600160a01b038083166000908152600660209081526040808320938516835292905220545b92915050565b6010546001600160a01b03163314806118bc5750600f546001600160a01b031633145b6118d85760405162461bcd60e51b8152600401610d3b906158ee565b60188190556019546017546110a2908390615ad1565b606060006118fc8484615b28565b67ffffffffffffffff81111561192257634e487b7160e01b600052604160045260246000fd5b60405190808252806020026020018201604052801561195557816020015b60608152602001906001900390816119405790505b509050835b83811015610cf457604051633846629960e01b815260076004820152602481018290526119fa9073__$f4f4ad711baf0b6680854290afed407660$__9063384662999060440160006040518083038186803b1580156119b857600080fd5b505af41580156119cc573d6000803e3d6000fd5b505050506040513d6000823e601f3d908101601f191682016040526119f491908101906155c4565b51613cf7565b82611a058784615b28565b81518110611a2357634e487b7160e01b600052603260045260246000fd5b60200260200101819052508080611a3990615ba6565b91505061195a565b6001600160a01b038116600090815260026020526040902054611a765760405162461bcd60e51b8152600401610d3b90615815565b6001600160a01b0382166000908152600560205260408120546040516370a0823160e01b81523060048201526001600160a01b038516906370a082319060240160206040518083038186803b158015611ace57600080fd5b505afa158015611ae2573d6000803e3d6000fd5b505050506040513d601f19601f82011682018060405250810190611b0691906153a6565b611b109190615ad1565b90506000611b2383836111e6878761186c565b905080611b425760405162461bcd60e51b8152600401610d3b9061585b565b6001600160a01b03808516600090815260066020908152604080832093871683529290529081208054839290611b79908490615ad1565b90915550506001600160a01b03841660009081526005602052604081208054839290611ba6908490615ad1565b90915550611bb79050848483614a1d565b604080516001600160a01b038581168252602082018490528616917f3be5b7a71e84ed12875d241991c70855ac5817d847039e17a9d895c1ceb0f18a910160405180910390a250505050565b6010546001600160a01b0316331480611c265750600f546001600160a01b031633145b611c425760405162461bcd60e51b8152600401610d3b906158ee565b601e80549115156101000261ff0019909216919091179055565b600080805b611c69614137565b811015611d2e57604051633846629960e01b8152600760048201526024810182905260009073__$f4f4ad711baf0b6680854290afed407660$__9063384662999060440160006040518083038186803b158015611cc557600080fd5b505af4158015611cd9573d6000803e3d6000fd5b505050506040513d6000823e601f3d908101601f19168201604052611d0191908101906155c4565b519050611d0e81866141c2565b611d189084615ad1565b9250508080611d2690615ba6565b915050611c61565b5092915050565b33611d3e61504e565b6000805b604051630fd2479b60e31b81526007600482015273__$f4f4ad711baf0b6680854290afed407660$__90637e923cd89060240160206040518083038186803b158015611d8d57600080fd5b505af4158015611da1573d6000803e3d6000fd5b505050506040513d601f19601f82011682018060405250810190611dc591906153a6565b811015611f2d57604051633846629960e01b8152600760048201526024810182905273__$f4f4ad711baf0b6680854290afed407660$__9063384662999060440160006040518083038186803b158015611e1e57600080fd5b505af4158015611e32573d6000803e3d6000fd5b505050506040513d6000823e601f3d908101601f19168201604052611e5a91908101906155c4565b92506000600b8460000151604051611e729190615773565b90815260408051602092819003830190206001600160a01b03881660009081529252812091505b8154811015611f1857611ec5828281548110610bfd57634e487b7160e01b600052603260045260246000fd5b611ecf9085615ad1565b935042828281548110611ef257634e487b7160e01b600052603260045260246000fd5b600091825260209091206002600390920201015580611f1081615ba6565b915050611e99565b50508080611f2590615ba6565b915050611d42565b5060008111611f715760405162461bcd60e51b815260206004820152601060248201526f4e6f7468696e6720746f20636c61696d60801b6044820152606401610d3b565b6010546015546040516323b872dd60e01b81526001600160a01b039182166004820152306024820152604481018490529116906323b872dd90606401602060405180830381600087803b158015611fc757600080fd5b505af1158015611fdb573d6000803e3d6000fd5b505050506040513d601f19601f82011682018060405250810190611fff9190615352565b50601c54610100900460ff161561204e57601b5460009015612040576064601b548361202b9190615b09565b6120359190615ae9565b905061204081614a6f565b61204a8183615b28565b9150505b60105460405163a9059cbb60e01b81526001600160a01b038581166004830152602482018490529091169063a9059cbb90604401602060405180830381600087803b15801561209c57600080fd5b505af11580156120b0573d6000803e3d6000fd5b505050506040513d601f19601f820116820180604052508101906120d49190615352565b50505050565b6010546001600160a01b03163314806120fd5750600f546001600160a01b031633145b6121195760405162461bcd60e51b8152600401610d3b906158ee565b6013546001600160a01b03828116911614156121885760405162461bcd60e51b815260206004820152602860248201527f544b4e3a2054686520726f7574657220616c7265616479206861732074686174604482015267206164647265737360c01b6064820152608401610d3b565b601380546001600160a01b0319166001600160a01b0392909216919091179055565b6010546001600160a01b03163314806121cd5750600f546001600160a01b031633145b6121e95760405162461bcd60e51b8152600401610d3b906158ee565b601d55565b6010546001600160a01b03163314806122115750600f546001600160a01b031633145b61222d5760405162461bcd60e51b8152600401610d3b906158ee565b601b55565b6010546001600160a01b03163314806122555750600f546001600160a01b031633145b6122715760405162461bcd60e51b8152600401610d3b906158ee565b601e805460ff1916911515919091179055565b600061228f836145c3565b61229b57506000611893565b8161233557604051635bce6b3b60e01b815273__$f4f4ad711baf0b6680854290afed407660$__90635bce6b3b906122da906007908790600401615910565b60206040518083038186803b1580156122f257600080fd5b505af4158015612306573d6000803e3d6000fd5b505050506040513d601f19601f8201168201806040525081019061232a91906153a6565b600101549050611893565b81600114156123d357604051635bce6b3b60e01b815273__$f4f4ad711baf0b6680854290afed407660$__90635bce6b3b90612378906007908790600401615910565b60206040518083038186803b15801561239057600080fd5b505af41580156123a4573d6000803e3d6000fd5b505050506040513d601f19601f820116820180604052508101906123c891906153a6565b600201549050611893565b816002141561247157604051635bce6b3b60e01b815273__$f4f4ad711baf0b6680854290afed407660$__90635bce6b3b90612416906007908790600401615910565b60206040518083038186803b15801561242e57600080fd5b505af4158015612442573d6000803e3d6000fd5b505050506040513d601f19601f8201168201806040525081019061246691906153a6565b600301549050611893565b816003141561250f57604051635bce6b3b60e01b815273__$f4f4ad711baf0b6680854290afed407660$__90635bce6b3b906124b4906007908790600401615910565b60206040518083038186803b1580156124cc57600080fd5b505af41580156124e0573d6000803e3d6000fd5b505050506040513d601f19601f8201168201806040525081019061250491906153a6565b600401549050611893565b81600414156125ad57604051635bce6b3b60e01b815273__$f4f4ad711baf0b6680854290afed407660$__90635bce6b3b90612552906007908790600401615910565b60206040518083038186803b15801561256a57600080fd5b505af415801561257e573d6000803e3d6000fd5b505050506040513d601f19601f820116820180604052508101906125a291906153a6565b600501549050611893565b816005141561264b57604051635bce6b3b60e01b815273__$f4f4ad711baf0b6680854290afed407660$__90635bce6b3b906125f0906007908790600401615910565b60206040518083038186803b15801561260857600080fd5b505af415801561261c573d6000803e3d6000fd5b505050506040513d601f19601f8201168201806040525081019061264091906153a6565b600601549050611893565b81600614156126e957604051635bce6b3b60e01b815273__$f4f4ad711baf0b6680854290afed407660$__90635bce6b3b9061268e906007908790600401615910565b60206040518083038186803b1580156126a657600080fd5b505af41580156126ba573d6000803e3d6000fd5b505050506040513d601f19601f820116820180604052508101906126de91906153a6565b600701549050611893565b816007141561278757604051635bce6b3b60e01b815273__$f4f4ad711baf0b6680854290afed407660$__90635bce6b3b9061272c906007908790600401615910565b60206040518083038186803b15801561274457600080fd5b505af4158015612758573d6000803e3d6000fd5b505050506040513d601f19601f8201168201806040525081019061277c91906153a6565b600801549050611893565b816008141561282557604051635bce6b3b60e01b815273__$f4f4ad711baf0b6680854290afed407660$__90635bce6b3b906127ca906007908790600401615910565b60206040518083038186803b1580156127e257600080fd5b505af41580156127f6573d6000803e3d6000fd5b505050506040513d601f19601f8201168201806040525081019061281a91906153a6565b600901549050611893565b81600914156128c357604051635bce6b3b60e01b815273__$f4f4ad711baf0b6680854290afed407660$__90635bce6b3b90612868906007908790600401615910565b60206040518083038186803b15801561288057600080fd5b505af4158015612894573d6000803e3d6000fd5b505050506040513d601f19601f820116820180604052508101906128b891906153a6565b600a01549050611893565b81600a141561296157604051635bce6b3b60e01b815273__$f4f4ad711baf0b6680854290afed407660$__90635bce6b3b90612906906007908790600401615910565b60206040518083038186803b15801561291e57600080fd5b505af4158015612932573d6000803e3d6000fd5b505050506040513d601f19601f8201168201806040525081019061295691906153a6565b600b01549050611893565b50600092915050565b6010546001600160a01b031633148061298d5750600f546001600160a01b031633145b6129a95760405162461bcd60e51b8152600401610d3b906158ee565b601981905560185460175482916110a291615ad1565b6000600482815481106129e257634e487b7160e01b600052603260045260246000fd5b6000918252602090912001546001600160a01b031692915050565b6010546001600160a01b0316331480612a205750600f546001600160a01b031633145b612a3c5760405162461bcd60e51b8152600401610d3b906158ee565b601580546001600160a01b0319166001600160a01b0392909216919091179055565b604051633846629960e01b8152600760048201526024810182905260609073__$f4f4ad711baf0b6680854290afed407660$__9063384662999060440160006040518083038186803b158015612ab357600080fd5b505af4158015612ac7573d6000803e3d6000fd5b505050506040513d6000823e601f3d908101601f19168201604052612aef91908101906155c4565b5192915050565b600080805b604051630fd2479b60e31b81526007600482015273__$f4f4ad711baf0b6680854290afed407660$__90637e923cd89060240160206040518083038186803b158015612b4657600080fd5b505af4158015612b5a573d6000803e3d6000fd5b505050506040513d601f19601f82011682018060405250810190612b7e91906153a6565b811015612c3557604051633846629960e01b8152600760048201526024810182905273__$f4f4ad711baf0b6680854290afed407660$__9063384662999060440160006040518083038186803b158015612bd757600080fd5b505af4158015612beb573d6000803e3d6000fd5b505050506040513d6000823e601f3d908101601f19168201604052612c1391908101906155c4565b60a00151612c219083615ad1565b915080612c2d81615ba6565b915050612afb565b50905090565b601e5460ff1680612c565750600f546001600160a01b031633145b612ca25760405162461bcd60e51b815260206004820152601c60248201527f4d6967726174696f6e206e6f7420617574686f72697a656420796574000000006044820152606401610d3b565b612d3560128054612cb290615b6b565b80601f0160208091040260200160405190810160405280929190818152602001828054612cde90615b6b565b8015612d2b5780601f10612d0057610100808354040283529160200191612d2b565b820191906000526020600020905b815481529060010190602001808311612d0e57829003601f168201915b50505050506145c3565b612d9a5760405162461bcd60e51b815260206004820152603060248201527f6d6f76654163636f756e743a205f64656661756c746e6f6465547970654e616d60448201526f1948191bd95cc81b9bdd08195e1a5cdd60821b6064820152608401610d3b565b60008111612dea5760405162461bcd60e51b815260206004820152601960248201527f4e62206d7573742062652067726561746572207468616e2030000000000000006044820152606401610d3b565b60115460405163112469f960e21b81526001600160a01b0384811660048301526000921690634491a7e49060240160206040518083038186803b158015612e3057600080fd5b505afa158015612e44573d6000803e3d6000fd5b505050506040513d601f19601f82011682018060405250810190612e6891906153a6565b6001600160a01b0384166000908152600e60205260409020549091508190612e909084615ad1565b1115612ede5760405162461bcd60e51b815260206004820152601860248201527f546f6f206d616e79206e6f6465732072657175657374656400000000000000006044820152606401610d3b565b612f738360128054612eef90615b6b565b80601f0160208091040260200160405190810160405280929190818152602001828054612f1b90615b6b565b8015612f685780601f10612f3d57610100808354040283529160200191612f68565b820191906000526020600020905b815481529060010190602001808311612f4b57829003601f168201915b5050505050846147b3565b6001600160a01b0383166000908152600e602052604081208054849290612f9b908490615ad1565b9091555050505050565b601e54610100900460ff16612ffc5760405162461bcd60e51b815260206004820181905260248201527f4e6f6465206372656174696f6e206e6f7420617574686f72697a6564207965746044820152606401610d3b565b613005826145c3565b6130515760405162461bcd60e51b815260206004820152601b60248201527f6e6f6465547970654e616d6520646f6573206e6f7420657869737400000000006044820152606401610d3b565b60145433906001600160a01b0316811480159061307c57506015546001600160a01b03828116911614155b6130985760405162461bcd60e51b8152600401610d3b906158a6565b604051635bce6b3b60e01b815260009073__$f4f4ad711baf0b6680854290afed407660$__90635bce6b3b906130d5906007908890600401615910565b60206040518083038186803b1580156130ed57600080fd5b505af4158015613101573d6000803e3d6000fd5b505050506040513d601f19601f8201168201806040525081019061312591906153a6565b90508281600a015410156131725760405162461bcd60e51b815260206004820152601460248201527311db1bd8985b081b1a5b5a5d081c995858da195960621b6044820152606401610d3b565b8281600a0160008282546131869190615b28565b9250508190555082600d8560405161319e9190615773565b90815260408051602092819003830190203360009081529252812080549091906131c9908490615ad1565b9091555050600b810154604051600d906131e4908790615773565b9081526040805160209281900383019020336000908152925290205411156132635760405162461bcd60e51b815260206004820152602c60248201527f4372656174696f6e20776974682070656e64696e67206c696d6974207265616360448201526b3432b2103337b9103ab9b2b960a11b6064820152608401610d3b565b60008382600101546132759190615b09565b905061327f61504e565b6000805b604051630fd2479b60e31b81526007600482015273__$f4f4ad711baf0b6680854290afed407660$__90637e923cd89060240160206040518083038186803b1580156132ce57600080fd5b505af41580156132e2573d6000803e3d6000fd5b505050506040513d601f19601f8201168201806040525081019061330691906153a6565b811080156133145750600084115b156134f657604051633846629960e01b8152600760048201526024810182905273__$f4f4ad711baf0b6680854290afed407660$__9063384662999060440160006040518083038186803b15801561336b57600080fd5b505af415801561337f573d6000803e3d6000fd5b505050506040513d6000823e601f3d908101601f191682016040526133a791908101906155c4565b92506000600b84600001516040516133bf9190615773565b90815260408051602092819003830190206001600160a01b038a1660009081529252812091505b8154811080156133f65750600086115b156134e15761341e828281548110610bfd57634e487b7160e01b600052603260045260246000fd5b935083861061346d574282828154811061344857634e487b7160e01b600052603260045260246000fd5b60009182526020909120600260039092020101556134668487615b28565b95506134cf565b606085015160408601516134819086615b09565b61348b9190615ae9565b6134959042615b28565b8282815481106134b557634e487b7160e01b600052603260045260246000fd5b906000526020600020906003020160020181905550600095505b806134d981615ba6565b9150506133e6565b505080806134ee90615ba6565b915050613283565b50821561353c5760405162461bcd60e51b8152602060048201526014602482015273496e73756666696369656e742050656e64696e6760601b6044820152606401610d3b565b6135478588886147b3565b50505050505050565b601e54610100900460ff166135a75760405162461bcd60e51b815260206004820181905260248201527f4e6f6465206372656174696f6e206e6f7420617574686f72697a6564207965746044820152606401610d3b565b6135b0826145c3565b6135fc5760405162461bcd60e51b815260206004820152601b60248201527f6e6f6465547970654e616d6520646f6573206e6f7420657869737400000000006044820152606401610d3b565b60145433906001600160a01b0316811480159061362757506015546001600160a01b03828116911614155b6136435760405162461bcd60e51b8152600401610d3b906158a6565b604051635bce6b3b60e01b8152600090839073__$f4f4ad711baf0b6680854290afed407660$__90635bce6b3b90613682906007908990600401615910565b60206040518083038186803b15801561369a57600080fd5b505af41580156136ae573d6000803e3d6000fd5b505050506040513d601f19601f820116820180604052508101906136d291906153a6565b600101546136e09190615b09565b6010546040516370a0823160e01b81526001600160a01b0385811660048301529293508392909116906370a082319060240160206040518083038186803b15801561372a57600080fd5b505afa15801561373e573d6000803e3d6000fd5b505050506040513d601f19601f8201168201806040525081019061376291906153a6565b10156137b05760405162461bcd60e51b815260206004820152601d60248201527f42616c616e636520746f6f206c6f7720666f72206372656174696f6e2e0000006044820152606401610d3b565b6010546040516323b872dd60e01b81526001600160a01b03848116600483015230602483015260448201849052909116906323b872dd90606401602060405180830381600087803b15801561380457600080fd5b505af1158015613818573d6000803e3d6000fd5b505050506040513d601f19601f8201168201806040525081019061383c9190615352565b506010546040516370a0823160e01b81523060048201526000916001600160a01b0316906370a082319060240160206040518083038186803b15801561388157600080fd5b505afa158015613895573d6000803e3d6000fd5b505050506040513d601f19601f820116820180604052508101906138b991906153a6565b601d54909150811080159081906138d75750601c54610100900460ff165b80156138e65750601c5460ff16155b15613a8c57601c805460ff1916600117905560195460009060649061390b9085615b09565b6139159190615ae9565b60145490915061392e906001600160a01b031682614c69565b60006064601754856139409190615b09565b61394a9190615ae9565b60105460155460405163a9059cbb60e01b81526001600160a01b03918216600482015260248101849052929350169063a9059cbb90604401602060405180830381600087803b15801561399c57600080fd5b505af11580156139b0573d6000803e3d6000fd5b505050506040513d601f19601f820116820180604052508101906139d49190615352565b5060006064601854866139e79190615b09565b6139f19190615ae9565b90506139fc81614cb8565b6010546040516370a0823160e01b8152306004820152613a7e916001600160a01b0316906370a082319060240160206040518083038186803b158015613a4157600080fd5b505afa158015613a55573d6000803e3d6000fd5b505050506040513d601f19601f82011682018060405250810190613a7991906153a6565b614a6f565b5050601c805460ff19169055505b6110468487876147b3565b6010546001600160a01b0316331480613aba5750600f546001600160a01b031633145b613ad65760405162461bcd60e51b8152600401610d3b906158ee565b613adf8b6145c3565b613b3f5760405162461bcd60e51b815260206004820152602b60248201527f6368616e67654e6f6465547970653a206e6f6465547970654e616d6520646f6560448201526a1cc81b9bdd08195e1a5cdd60aa1b6064820152608401610d3b565b6000600773__$f4f4ad711baf0b6680854290afed407660$__635bce6b3b90918e6040518363ffffffff1660e01b8152600401613b7d929190615910565b60206040518083038186803b158015613b9557600080fd5b505af4158015613ba9573d6000803e3d6000fd5b505050506040513d601f19601f82011682018060405250810190613bcd91906153a6565b90508a15613bdd57600181018b90555b8915613beb57600281018a90555b8815613bf957600381018990555b8715613c0757600481018890555b8615613c1557600681018790555b8515613c2357600781018690555b8415613c3157600881018590555b8315613c3f57600981018490555b8215613c4d57600a81018390555b8115613c5b57600b81018290555b505050505050505050505050565b60128054613c7690615b6b565b80601f0160208091040260200160405190810160405280929190818152602001828054613ca290615b6b565b8015613cef5780601f10613cc457610100808354040283529160200191613cef565b820191906000526020600020905b815481529060010190602001808311613cd257829003601f168201915b505050505081565b6060613d02826145c3565b613d425760405162461bcd60e51b815260206004820152601160248201527013985b5948191bd95cdb9d08195e1a5cdd607a1b6044820152606401610d3b565b60408051600b80825261018082019092526000916020820161016080368337019050509050613d6f61504e565b604051635bce6b3b60e01b815273__$f4f4ad711baf0b6680854290afed407660$__90635bce6b3b90613da9906007908890600401615910565b60206040518083038186803b158015613dc157600080fd5b505af4158015613dd5573d6000803e3d6000fd5b505050506040513d601f19601f82011682018060405250810190613df991906153a6565b60405180610180016040529081600082018054613e1590615b6b565b80601f0160208091040260200160405190810160405280929190818152602001828054613e4190615b6b565b8015613e8e5780601f10613e6357610100808354040283529160200191613e8e565b820191906000526020600020905b815481529060010190602001808311613e7157829003601f168201915b50505050508152602001600182015481526020016002820154815260200160038201548152602001600482015481526020016005820154815260200160068201548152602001600782015481526020016008820154815260200160098201548152602001600a8201548152602001600b820154815250509050806020015182600081518110613f2d57634e487b7160e01b600052603260045260246000fd5b602002602001018181525050806040015182600181518110613f5f57634e487b7160e01b600052603260045260246000fd5b602002602001018181525050806060015182600281518110613f9157634e487b7160e01b600052603260045260246000fd5b602002602001018181525050806080015182600381518110613fc357634e487b7160e01b600052603260045260246000fd5b6020026020010181815250508060a0015182600481518110613ff557634e487b7160e01b600052603260045260246000fd5b6020026020010181815250508060c001518260058151811061402757634e487b7160e01b600052603260045260246000fd5b6020026020010181815250508060e001518260068151811061405957634e487b7160e01b600052603260045260246000fd5b6020026020010181815250508061010001518260078151811061408c57634e487b7160e01b600052603260045260246000fd5b602002602001018181525050806101200151826008815181106140bf57634e487b7160e01b600052603260045260246000fd5b602002602001018181525050806101400151826009815181106140f257634e487b7160e01b600052603260045260246000fd5b60200260200101818152505080610160015182600a8151811061412557634e487b7160e01b600052603260045260246000fd5b60209081029190910101525092915050565b604051630fd2479b60e31b81526007600482015260009073__$f4f4ad711baf0b6680854290afed407660$__90637e923cd89060240160206040518083038186803b15801561418557600080fd5b505af4158015614199573d6000803e3d6000fd5b505050506040513d601f19601f820116820180604052508101906141bd91906153a6565b905090565b60006141cd836145c3565b6141d957506000611893565b600b836040516141e99190615773565b908152604080519182900360209081019092206001600160a01b03851660009081529252902054905092915050565b6010546001600160a01b031633148061423b5750600f546001600160a01b031633145b6142575760405162461bcd60e51b8152600401610d3b906158ee565b601e8054911515620100000262ff000019909216919091179055565b6010546001600160a01b03163314806142965750600f546001600160a01b031633145b6142b25760405162461bcd60e51b8152600401610d3b906158ee565b6142bb816145c3565b6142fe5760405162461bcd60e51b8152602060048201526014602482015273139bd919551e5c1948191bd95cdb88195e1a5cdd60621b6044820152606401610d3b565b80516143119060129060208401906150ee565b5050565b8051604051635bce6b3b60e01b8152600091829173__$f4f4ad711baf0b6680854290afed407660$__91635bce6b3b9161435491600791600401615910565b60206040518083038186803b15801561436c57600080fd5b505af4158015614380573d6000803e3d6000fd5b505050506040513d601f19601f820116820180604052508101906143a491906153a6565b604051806101800160405290816000820180546143c090615b6b565b80601f01602080910402602001604051908101604052809291908181526020018280546143ec90615b6b565b80156144395780601f1061440e57610100808354040283529160200191614439565b820191906000526020600020905b81548152906001019060200180831161441c57829003601f168201915b50505050508152602001600182015481526020016002820154815260200160038201548152602001600482015481526020016005820154815260200160068201548152602001600782015481526020016008820154815260200160098201548152602001600a8201548152602001600b820154815250509050600081604001518460400151426144c99190615b28565b10156145285760408201516144df906064615b09565b60808301516144ef906064615b28565b60408601516144fe9042615b28565b846060015161450d9190615b09565b6145179190615b09565b6145219190615ae9565b9050614559565b816040015184604001514261453d9190615b28565b836060015161454c9190615b09565b6145569190615ae9565b90505b816020015182604001518560200151426145739190615b28565b84606001516145829190615b09565b61458c9190615ae9565b10156145bc5760648260e0015160646145a59190615b28565b6145af9083615b09565b6145b99190615ae9565b90505b9392505050565b6040516306fb0b3960e51b8152600090819073__$f4f4ad711baf0b6680854290afed407660$__9063df61672090614602906007908790600401615910565b60206040518083038186803b15801561461a57600080fd5b505af415801561462e573d6000803e3d6000fd5b505050506040513d601f19601f8201168201806040525081019061465291906153a6565b121592915050565b600080546001600160a01b0385168252600260205260408220548391906146819086615b09565b61468b9190615ae9565b6145b99190615b28565b804710156146e55760405162461bcd60e51b815260206004820152601d60248201527f416464726573733a20696e73756666696369656e742062616c616e63650000006044820152606401610d3b565b6000826001600160a01b03168260405160006040518083038185875af1925050503d8060008114614732576040519150601f19603f3d011682016040523d82523d6000602084013e614737565b606091505b50509050806147ae5760405162461bcd60e51b815260206004820152603a60248201527f416464726573733a20756e61626c6520746f2073656e642076616c75652c207260448201527f6563697069656e74206d617920686176652072657665727465640000000000006064820152608401610d3b565b505050565b6147bc826145c3565b61481a5760405162461bcd60e51b815260206004820152602960248201527f5f6372656174654e6f6465733a206e6f6465547970654e616d6520646f6573206044820152681b9bdd08195e1a5cdd60ba1b6064820152608401610d3b565b6000811161487d5760405162461bcd60e51b815260206004820152602a60248201527f5f6372656174654e6f6465733a20636f756e742063616e6e6f74206265206c6560448201526939b9903a3430b710189760b11b6064820152608401610d3b565b604051635bce6b3b60e01b815260009073__$f4f4ad711baf0b6680854290afed407660$__90635bce6b3b906148ba906007908790600401615910565b60206040518083038186803b1580156148d257600080fd5b505af41580156148e6573d6000803e3d6000fd5b505050506040513d601f19601f8201168201806040525081019061490a91906153a6565b9050818160050160008282546149209190615ad1565b90915550506006810154600582015411156149735760405162461bcd60e51b815260206004820152601360248201527213585e08185b1c9958591e481c995858da1959606a1b6044820152606401610d3b565b60005b8281101561180457600b8460405161498e9190615773565b9081526040805191829003602090810183206001600160a01b038916600090815290825282812060608501845288855242858401819052938501939093528254600181018455928152819020835180516003909402909101926149f492849201906150ee565b506020820151600182015560409091015160029091015580614a1581615ba6565b915050614976565b604080516001600160a01b038416602482015260448082018490528251808303909101815260649091019091526020810180516001600160e01b031663a9059cbb60e01b1790526147ae908490614d3f565b604080516002808252606082018352600092602083019080368337505060105482519293506001600160a01b031691839150600090614abe57634e487b7160e01b600052603260045260246000fd5b6001600160a01b03928316602091820292909201810191909152601354604080516339d94ae160e11b8152905191909316926373b295c2926004808301939192829003018186803b158015614b1257600080fd5b505afa158015614b26573d6000803e3d6000fd5b505050506040513d601f19601f82011682018060405250810190614b4a919061523f565b81600181518110614b6b57634e487b7160e01b600052603260045260246000fd5b6001600160a01b03928316602091820292909201015260105460135460405163095ea7b360e01b815290831660048201526024810185905291169063095ea7b390604401602060405180830381600087803b158015614bc957600080fd5b505af1158015614bdd573d6000803e3d6000fd5b505050506040513d601f19601f82011682018060405250810190614c019190615352565b50601354604051633b158ab160e11b81526001600160a01b039091169063762b156290614c3b9085906000908690309042906004016159e4565b600060405180830381600087803b158015614c5557600080fd5b505af1158015611046573d6000803e3d6000fd5b47614c7382614a6f565b6000614c7f8247615b28565b6040519091506001600160a01b0385169082156108fc029083906000818181858888f19350505050158015611804573d6000803e3d6000fd5b6000614cc5600283615ae9565b90506000614cd38284615b28565b905047614cdf83614a6f565b6000614ceb8247615b28565b9050614cf78382614e11565b60408051858152602081018390529081018490527f17bbfb9a6069321b6ded73bd96327c9e6b7212a5cd51ff219cd61370acafb5619060600160405180910390a15050505050565b6000614d94826040518060400160405280602081526020017f5361666545524332303a206c6f772d6c6576656c2063616c6c206661696c6564815250856001600160a01b0316614f439092919063ffffffff16565b8051909150156147ae5780806020019051810190614db29190615352565b6147ae5760405162461bcd60e51b815260206004820152602a60248201527f5361666545524332303a204552433230206f7065726174696f6e20646964206e6044820152691bdd081cdd58d8d9595960b21b6064820152608401610d3b565b60105460135460405163095ea7b360e01b81526001600160a01b0391821660048201526024810185905291169063095ea7b390604401602060405180830381600087803b158015614e6157600080fd5b505af1158015614e75573d6000803e3d6000fd5b505050506040513d601f19601f82011682018060405250810190614e999190615352565b50601354601054601654604051637c8d9fb960e11b81526001600160a01b03928316600482015260248101869052600060448201819052606482015290821660848201524260a482015291169063f91b3f7290839060c4016060604051808303818588803b158015614f0a57600080fd5b505af1158015614f1e573d6000803e3d6000fd5b50505050506040513d601f19601f8201168201806040525081019061180491906156e0565b60606145b9848460008585843b614f9c5760405162461bcd60e51b815260206004820152601d60248201527f416464726573733a2063616c6c20746f206e6f6e2d636f6e74726163740000006044820152606401610d3b565b600080866001600160a01b03168587604051614fb89190615773565b60006040518083038185875af1925050503d8060008114614ff5576040519150601f19603f3d011682016040523d82523d6000602084013e614ffa565b606091505b509150915061500a828286615015565b979650505050505050565b606083156150245750816145bc565b8251156150345782518084602001fd5b8160405162461bcd60e51b8152600401610d3b9190615802565b6040518061018001604052806060815260200160008152602001600081526020016000815260200160008152602001600081526020016000815260200160008152602001600081526020016000815260200160008152602001600081525090565b5080546150bb90615b6b565b6000825580601f106150cd57506150eb565b601f0160209004906000526020600020908101906150eb9190615172565b50565b8280546150fa90615b6b565b90600052602060002090601f01602090048101928261511c5760008555615162565b82601f1061513557805160ff1916838001178555615162565b82800160010185558215615162579182015b82811115615162578251825591602001919060010190615147565b5061516e929150615172565b5090565b5b8082111561516e5760008155600101615173565b600082601f830112615197578081fd5b81356151aa6151a582615aa9565b615a54565b8181528460208386010111156151be578283fd5b816020850160208301379081016020019190915292915050565b600082601f8301126151e8578081fd5b81516151f66151a582615aa9565b81815284602083860101111561520a578283fd5b61521b826020830160208701615b3f565b949350505050565b600060208284031215615234578081fd5b81356145bc81615bed565b600060208284031215615250578081fd5b81516145bc81615bed565b6000806040838503121561526d578081fd5b823561527881615bed565b946020939093013593505050565b60008060408385031215615298578182fd5b823567ffffffffffffffff808211156152af578384fd5b818501915085601f8301126152c2578384fd5b813560206152d26151a583615a85565b82815281810190858301885b85811015615307576152f58c8684358b0101615187565b845292840192908401906001016152de565b5090975050508601359250508082111561531f578283fd5b5061532c85828601615187565b9150509250929050565b600060208284031215615347578081fd5b81356145bc81615c02565b600060208284031215615363578081fd5b81516145bc81615c02565b60008060408385031215615380578182fd5b823561538b81615bed565b9150602083013561539b81615bed565b809150509250929050565b6000602082840312156153b7578081fd5b5051919050565b6000602082840312156153cf578081fd5b813567ffffffffffffffff8111156153e5578182fd5b61521b84828501615187565b60008060408385031215615403578182fd5b823567ffffffffffffffff811115615419578283fd5b61542585828601615187565b925050602083013561539b81615bed565b60008060408385031215615448578182fd5b823567ffffffffffffffff8082111561545f578384fd5b61546b86838701615187565b9350602091508185013581811115615481578384fd5b85019050601f81018613615493578283fd5b80356154a16151a582615a85565b81815283810190838501858402850186018a10156154bd578687fd5b8694505b838510156154df5780358352600194909401939185019185016154c1565b5080955050505050509250929050565b60008060408385031215615501578182fd5b823567ffffffffffffffff811115615517578283fd5b61552385828601615187565b95602094909401359450505050565b60008060008060008060008060008060006101608c8e031215615553578687fd5b8b3567ffffffffffffffff811115615569578788fd5b6155758e828f01615187565b9e60208e01359e5060408e01359d60608101359d5060808101359c5060a08101359b5060c08101359a5060e0810135995061010081013598506101208101359750610140013595509350505050565b6000602082840312156155d5578081fd5b815167ffffffffffffffff808211156155ec578283fd5b8184019150610180808387031215615602578384fd5b61560b81615a54565b905082518281111561561b578485fd5b615627878286016151d8565b8252506020838101519082015260408084015190820152606080840151908201526080808401519082015260a0808401519082015260c0808401519082015260e080840151908201526101008084015190820152610120808401519082015261014080840151908201526101609283015192810192909252509392505050565b6000602082840312156156b8578081fd5b5035919050565b600080604083850312156156d1578182fd5b50508035926020909101359150565b6000806000606084860312156156f4578081fd5b8351925060208401519150604084015190509250925092565b6000815180845260208085019450808401835b8381101561573c57815187529582019590820190600101615720565b509495945050505050565b6000815180845261575f816020860160208601615b3f565b601f01601f19169290920160200192915050565b60008251615785818460208701615b3f565b9190910192915050565b6000602080830181845280855180835260408601915060408482028701019250838701855b828110156157e257603f198886030184526157d085835161570d565b945092850192908501906001016157b4565b5092979650505050505050565b6000602082526145bc602083018461570d565b6000602082526145bc6020830184615747565b60208082526026908201527f5061796d656e7453706c69747465723a206163636f756e7420686173206e6f2060408201526573686172657360d01b606082015260800190565b6020808252602b908201527f5061796d656e7453706c69747465723a206163636f756e74206973206e6f742060408201526a191d59481c185e5b595b9d60aa1b606082015260800190565b60208082526028908201527f667574757220616e642072657761726473506f6f6c2063616e6e6f7420637265604082015267617465206e6f646560c01b606082015260800190565b602080825260089082015267233ab1b59037b33360c11b604082015260600190565b6000838252604060208301526145b96040830184615747565b6000848252606060208301526159426060830185615747565b8281036040840152610180845181835261595e82840182615747565b9150506020850151602083015260408501516040830152606085015160608301526080850151608083015260a085015160a083015260c085015160c083015260e085015160e08301526101008086015181840152506101208086015181840152506101408086015181840152506101608086015181840152508092505050949350505050565b600060a082018783526020878185015260a0604085015281875180845260c0860191508289019350845b81811015615a335784516001600160a01b031683529383019391830191600101615a0e565b50506001600160a01b03969096166060850152505050608001529392505050565b604051601f8201601f1916810167ffffffffffffffff81118282101715615a7d57615a7d615bd7565b604052919050565b600067ffffffffffffffff821115615a9f57615a9f615bd7565b5060209081020190565b600067ffffffffffffffff821115615ac357615ac3615bd7565b50601f01601f191660200190565b60008219821115615ae457615ae4615bc1565b500190565b600082615b0457634e487b7160e01b81526012600452602481fd5b500490565b6000816000190483118215151615615b2357615b23615bc1565b500290565b600082821015615b3a57615b3a615bc1565b500390565b60005b83811015615b5a578181015183820152602001615b42565b838111156120d45750506000910152565b600281046001821680615b7f57607f821691505b60208210811415615ba057634e487b7160e01b600052602260045260246000fd5b50919050565b6000600019821415615bba57615bba615bc1565b5060010190565b634e487b7160e01b600052601160045260246000fd5b634e487b7160e01b600052604160045260246000fd5b6001600160a01b03811681146150eb57600080fd5b80151581146150eb57600080fdfea264697066735822122055e39e9a86e74b1be569b08796d7b380eb0637247d1d9cfef24c7dec027b7a8d64736f6c63430008020033",
  "linkReferences": {
    "contracts/IterableNodeTypeMapping.sol": {
      "IterableNodeTypeMapping": [
        {
          "length": 20,
          "start": 5537
        },
        {
          "length": 20,
          "start": 5682
        },
        {
          "length": 20,
          "start": 6415
        },
        {
          "length": 20,
          "start": 7784
        },
        {
          "length": 20,
          "start": 8498
        },
        {
          "length": 20,
          "start": 9364
        },
        {
          "length": 20,
          "start": 10145
        },
        {
          "length": 20,
          "start": 10345
        },
        {
          "length": 20,
          "start": 10490
        },
        {
          "length": 20,
          "start": 11712
        },
        {
          "length": 20,
          "start": 11870
        },
        {
          "length": 20,
          "start": 12028
        },
        {
          "length": 20,
          "start": 12186
        },
        {
          "length": 20,
          "start": 12344
        },
        {
          "length": 20,
          "start": 12502
        },
        {
          "length": 20,
          "start": 12660
        },
        {
          "length": 20,
          "start": 12818
        },
        {
          "length": 20,
          "start": 12976
        },
        {
          "length": 20,
          "start": 13134
        },
        {
          "length": 20,
          "start": 13292
        },
        {
          "length": 20,
          "start": 13711
        },
        {
          "length": 20,
          "start": 13858
        },
        {
          "length": 20,
          "start": 14003
        },
        {
          "length": 20,
          "start": 15291
        },
        {
          "length": 20,
          "start": 15786
        },
        {
          "length": 20,
          "start": 15943
        },
        {
          "length": 20,
          "start": 16744
        },
        {
          "length": 20,
          "start": 18006
        },
        {
          "length": 20,
          "start": 18575
        },
        {
          "length": 20,
          "start": 19553
        },
        {
          "length": 20,
          "start": 20028
        },
        {
          "length": 20,
          "start": 20712
        },
        {
          "length": 20,
          "start": 21408
        }
      ]
    }
  },
  "deployedLinkReferences": {
    "contracts/IterableNodeTypeMapping.sol": {
      "IterableNodeTypeMapping": [
        {
          "length": 20,
          "start": 2704
        },
        {
          "length": 20,
          "start": 2849
        },
        {
          "length": 20,
          "start": 3582
        },
        {
          "length": 20,
          "start": 4951
        },
        {
          "length": 20,
          "start": 5665
        },
        {
          "length": 20,
          "start": 6531
        },
        {
          "length": 20,
          "start": 7312
        },
        {
          "length": 20,
          "start": 7512
        },
        {
          "length": 20,
          "start": 7657
        },
        {
          "length": 20,
          "start": 8879
        },
        {
          "length": 20,
          "start": 9037
        },
        {
          "length": 20,
          "start": 9195
        },
        {
          "length": 20,
          "start": 9353
        },
        {
          "length": 20,
          "start": 9511
        },
        {
          "length": 20,
          "start": 9669
        },
        {
          "length": 20,
          "start": 9827
        },
        {
          "length": 20,
          "start": 9985
        },
        {
          "length": 20,
          "start": 10143
        },
        {
          "length": 20,
          "start": 10301
        },
        {
          "length": 20,
          "start": 10459
        },
        {
          "length": 20,
          "start": 10878
        },
        {
          "length": 20,
          "start": 11025
        },
        {
          "length": 20,
          "start": 11170
        },
        {
          "length": 20,
          "start": 12458
        },
        {
          "length": 20,
          "start": 12953
        },
        {
          "length": 20,
          "start": 13110
        },
        {
          "length": 20,
          "start": 13911
        },
        {
          "length": 20,
          "start": 15173
        },
        {
          "length": 20,
          "start": 15742
        },
        {
          "length": 20,
          "start": 16720
        },
        {
          "length": 20,
          "start": 17195
        },
        {
          "length": 20,
          "start": 17879
        },
        {
          "length": 20,
          "start": 18575
        }
      ]
    }
  }
}